{
  "address": "0xf83527d49a5df53e896ce087ce05e21c504f20d1",
  "abi": [
    {
      "inputs": [
        {
          "internalType": "uint256",
          "name": "_startTime",
          "type": "uint256"
        },
        {
          "internalType": "uint256",
          "name": "_decreaseCoefficient",
          "type": "uint256"
        },
        {
          "internalType": "uint256",
          "name": "_totalSupplyByDay",
          "type": "uint256"
        },
        {
          "internalType": "uint256",
          "name": "_mintPrice",
          "type": "uint256"
        }
      ],
      "stateMutability": "nonpayable",
      "type": "constructor"
    },
    {
      "anonymous": false,
      "inputs": [
        {
          "indexed": false,
          "internalType": "address",
          "name": "_sender",
          "type": "address"
        },
        {
          "indexed": false,
          "internalType": "uint256",
          "name": "_tokenId",
          "type": "uint256"
        },
        {
          "indexed": false,
          "internalType": "uint256",
          "name": "_stickNo",
          "type": "uint256"
        }
      ],
      "name": "DrawFortune",
      "type": "event"
    },
    {
      "anonymous": false,
      "inputs": [
        {
          "indexed": false,
          "internalType": "address",
          "name": "_sender",
          "type": "address"
        },
        {
          "indexed": false,
          "internalType": "address",
          "name": "_meritCoin",
          "type": "address"
        }
      ],
      "name": "InitFortuneStick",
      "type": "event"
    },
    {
      "anonymous": false,
      "inputs": [
        {
          "indexed": false,
          "internalType": "address",
          "name": "_sender",
          "type": "address"
        },
        {
          "indexed": false,
          "internalType": "address",
          "name": "_meritCoin",
          "type": "address"
        }
      ],
      "name": "InitMeritCoin",
      "type": "event"
    },
    {
      "anonymous": false,
      "inputs": [
        {
          "indexed": false,
          "internalType": "uint8",
          "name": "version",
          "type": "uint8"
        }
      ],
      "name": "Initialized",
      "type": "event"
    },
    {
      "anonymous": false,
      "inputs": [
        {
          "indexed": false,
          "internalType": "address",
          "name": "_sender",
          "type": "address"
        },
        {
          "indexed": false,
          "internalType": "uint256",
          "name": "_mintAmount",
          "type": "uint256"
        }
      ],
      "name": "OfferingIncense",
      "type": "event"
    },
    {
      "anonymous": false,
      "inputs": [
        {
          "indexed": true,
          "internalType": "address",
          "name": "previousOwner",
          "type": "address"
        },
        {
          "indexed": true,
          "internalType": "address",
          "name": "newOwner",
          "type": "address"
        }
      ],
      "name": "OwnershipTransferred",
      "type": "event"
    },
    {
      "anonymous": false,
      "inputs": [
        {
          "indexed": false,
          "internalType": "address",
          "name": "_sender",
          "type": "address"
        },
        {
          "indexed": false,
          "internalType": "uint256",
          "name": "_old",
          "type": "uint256"
        },
        {
          "indexed": false,
          "internalType": "uint256",
          "name": "_new",
          "type": "uint256"
        }
      ],
      "name": "SetDecreaseCoefficient",
      "type": "event"
    },
    {
      "anonymous": false,
      "inputs": [
        {
          "indexed": false,
          "internalType": "address",
          "name": "_sender",
          "type": "address"
        },
        {
          "indexed": false,
          "internalType": "uint256",
          "name": "_old",
          "type": "uint256"
        },
        {
          "indexed": false,
          "internalType": "uint256",
          "name": "_new",
          "type": "uint256"
        }
      ],
      "name": "SetMintPrice",
      "type": "event"
    },
    {
      "anonymous": false,
      "inputs": [
        {
          "indexed": false,
          "internalType": "address",
          "name": "_sender",
          "type": "address"
        },
        {
          "indexed": false,
          "internalType": "uint256",
          "name": "_old",
          "type": "uint256"
        },
        {
          "indexed": false,
          "internalType": "uint256",
          "name": "_new",
          "type": "uint256"
        }
      ],
      "name": "SetTotalSupplyByDay",
      "type": "event"
    },
    {
      "anonymous": false,
      "inputs": [
        {
          "indexed": false,
          "internalType": "address",
          "name": "_sender",
          "type": "address"
        },
        {
          "indexed": false,
          "internalType": "uint256",
          "name": "_days",
          "type": "uint256"
        },
        {
          "indexed": false,
          "internalType": "uint256",
          "name": "_timestamp",
          "type": "uint256"
        }
      ],
      "name": "UpdateSupplyByDay",
      "type": "event"
    },
    {
      "anonymous": false,
      "inputs": [
        {
          "indexed": false,
          "internalType": "address",
          "name": "_sender",
          "type": "address"
        },
        {
          "indexed": false,
          "internalType": "address",
          "name": "_receiver",
          "type": "address"
        },
        {
          "indexed": false,
          "internalType": "uint256",
          "name": "_amount",
          "type": "uint256"
        }
      ],
      "name": "WithdrawETH",
      "type": "event"
    },
    {
      "inputs": [],
      "name": "decreaseCoefficient",
      "outputs": [
        {
          "internalType": "uint256",
          "name": "",
          "type": "uint256"
        }
      ],
      "stateMutability": "view",
      "type": "function"
    },
    {
      "inputs": [],
      "name": "drawFortune",
      "outputs": [],
      "stateMutability": "nonpayable",
      "type": "function"
    },
    {
      "inputs": [],
      "name": "firstMintByDay",
      "outputs": [
        {
          "internalType": "uint256",
          "name": "",
          "type": "uint256"
        }
      ],
      "stateMutability": "view",
      "type": "function"
    },
    {
      "inputs": [],
      "name": "fortuneStick",
      "outputs": [
        {
          "internalType": "address",
          "name": "",
          "type": "address"
        }
      ],
      "stateMutability": "view",
      "type": "function"
    },
    {
      "inputs": [],
      "name": "fourthMintByDay",
      "outputs": [
        {
          "internalType": "uint256",
          "name": "",
          "type": "uint256"
        }
      ],
      "stateMutability": "view",
      "type": "function"
    },
    {
      "inputs": [],
      "name": "getDays",
      "outputs": [
        {
          "internalType": "uint256",
          "name": "",
          "type": "uint256"
        }
      ],
      "stateMutability": "view",
      "type": "function"
    },
    {
      "inputs": [
        {
          "internalType": "address",
          "name": "_fortuneStick",
          "type": "address"
        }
      ],
      "name": "initFortuneStick",
      "outputs": [],
      "stateMutability": "nonpayable",
      "type": "function"
    },
    {
      "inputs": [
        {
          "internalType": "address",
          "name": "_meritCoin",
          "type": "address"
        }
      ],
      "name": "initMeritCoin",
      "outputs": [],
      "stateMutability": "nonpayable",
      "type": "function"
    },
    {
      "inputs": [
        {
          "internalType": "uint256",
          "name": "_startTime",
          "type": "uint256"
        },
        {
          "internalType": "uint256",
          "name": "_decreaseCoefficient",
          "type": "uint256"
        },
        {
          "internalType": "uint256",
          "name": "_totalSupplyByDay",
          "type": "uint256"
        },
        {
          "internalType": "uint256",
          "name": "_mintPrice",
          "type": "uint256"
        }
      ],
      "name": "initialize",
      "outputs": [],
      "stateMutability": "nonpayable",
      "type": "function"
    },
    {
      "inputs": [],
      "name": "lastDecrement",
      "outputs": [
        {
          "internalType": "uint256",
          "name": "",
          "type": "uint256"
        }
      ],
      "stateMutability": "view",
      "type": "function"
    },
    {
      "inputs": [],
      "name": "meritCoin",
      "outputs": [
        {
          "internalType": "address",
          "name": "",
          "type": "address"
        }
      ],
      "stateMutability": "view",
      "type": "function"
    },
    {
      "inputs": [
        {
          "internalType": "uint256",
          "name": "",
          "type": "uint256"
        }
      ],
      "name": "mintNum",
      "outputs": [
        {
          "internalType": "uint256",
          "name": "",
          "type": "uint256"
        }
      ],
      "stateMutability": "view",
      "type": "function"
    },
    {
      "inputs": [],
      "name": "mintPrice",
      "outputs": [
        {
          "internalType": "uint256",
          "name": "",
          "type": "uint256"
        }
      ],
      "stateMutability": "view",
      "type": "function"
    },
    {
      "inputs": [],
      "name": "offeringIncense",
      "outputs": [],
      "stateMutability": "payable",
      "type": "function"
    },
    {
      "inputs": [],
      "name": "owner",
      "outputs": [
        {
          "internalType": "address",
          "name": "",
          "type": "address"
        }
      ],
      "stateMutability": "view",
      "type": "function"
    },
    {
      "inputs": [],
      "name": "remainingSupply",
      "outputs": [
        {
          "internalType": "uint256",
          "name": "",
          "type": "uint256"
        }
      ],
      "stateMutability": "view",
      "type": "function"
    },
    {
      "inputs": [],
      "name": "renounceOwnership",
      "outputs": [],
      "stateMutability": "nonpayable",
      "type": "function"
    },
    {
      "inputs": [],
      "name": "secondMintByDay",
      "outputs": [
        {
          "internalType": "uint256",
          "name": "",
          "type": "uint256"
        }
      ],
      "stateMutability": "view",
      "type": "function"
    },
    {
      "inputs": [
        {
          "internalType": "uint256",
          "name": "_new",
          "type": "uint256"
        }
      ],
      "name": "setDecreaseCoefficient",
      "outputs": [],
      "stateMutability": "nonpayable",
      "type": "function"
    },
    {
      "inputs": [
        {
          "internalType": "uint256",
          "name": "_new",
          "type": "uint256"
        }
      ],
      "name": "setMintPrice",
      "outputs": [],
      "stateMutability": "nonpayable",
      "type": "function"
    },
    {
      "inputs": [
        {
          "internalType": "uint256",
          "name": "_new",
          "type": "uint256"
        }
      ],
      "name": "setTotalSupplyByDay",
      "outputs": [],
      "stateMutability": "nonpayable",
      "type": "function"
    },
    {
      "inputs": [],
      "name": "startTime",
      "outputs": [
        {
          "internalType": "uint256",
          "name": "",
          "type": "uint256"
        }
      ],
      "stateMutability": "view",
      "type": "function"
    },
    {
      "inputs": [],
      "name": "thirdMintByDay",
      "outputs": [
        {
          "internalType": "uint256",
          "name": "",
          "type": "uint256"
        }
      ],
      "stateMutability": "view",
      "type": "function"
    },
    {
      "inputs": [],
      "name": "totalSupplyByDay",
      "outputs": [
        {
          "internalType": "uint256",
          "name": "",
          "type": "uint256"
        }
      ],
      "stateMutability": "view",
      "type": "function"
    },
    {
      "inputs": [
        {
          "internalType": "address",
          "name": "newOwner",
          "type": "address"
        }
      ],
      "name": "transferOwnership",
      "outputs": [],
      "stateMutability": "nonpayable",
      "type": "function"
    },
    {
      "inputs": [
        {
          "internalType": "uint256",
          "name": "",
          "type": "uint256"
        }
      ],
      "name": "updateSupplyByDay",
      "outputs": [
        {
          "internalType": "bool",
          "name": "",
          "type": "bool"
        }
      ],
      "stateMutability": "view",
      "type": "function"
    },
    {
      "inputs": [
        {
          "internalType": "uint256",
          "name": "",
          "type": "uint256"
        },
        {
          "internalType": "address",
          "name": "",
          "type": "address"
        }
      ],
      "name": "userMintNumByDay",
      "outputs": [
        {
          "internalType": "uint256",
          "name": "",
          "type": "uint256"
        }
      ],
      "stateMutability": "view",
      "type": "function"
    },
    {
      "inputs": [
        {
          "internalType": "address",
          "name": "_to",
          "type": "address"
        }
      ],
      "name": "withdrawETH",
      "outputs": [],
      "stateMutability": "nonpayable",
      "type": "function"
    },
    {
      "stateMutability": "payable",
      "type": "receive"
    }
  ],
  "transactionHash": "0x0a7e6fc3a60596f75cfd8c6d1b1ae50483e51e1294d8bb0f405c0b2d173e48f3",
  "args": [
    "1717516800",
    "1044910130000000000",
    "888000000000000000000",
    "1000000000000000"
  ],
  "numDeployments": 1,
  "solcInputHash": "163a3bf72478615ba980fe097bc43a82",
  "bytecode": "0x60806040523480156200001157600080fd5b506040516200198b3803806200198b8339810160408190526200003491620002a2565b62000042848484846200004c565b50505050620002d9565b600054610100900460ff16158080156200006d5750600054600160ff909116105b80620000895750303b15801562000089575060005460ff166001145b620000f25760405162461bcd60e51b815260206004820152602e60248201527f496e697469616c697a61626c653a20636f6e747261637420697320616c72656160448201526d191e481a5b9a5d1a585b1a5e995960921b60648201526084015b60405180910390fd5b6000805460ff19166001179055801562000116576000805461ff0019166101001790555b6200012062000187565b606785905560698490556068839055606a829055606b839055801562000180576000805461ff0019169055604051600181527f7f26b83ff96e1f2b6a682f133852f6798a09c465da95921460cefb38474024989060200160405180910390a15b5050505050565b600054610100900460ff16620001e35760405162461bcd60e51b815260206004820152602b60248201526000805160206200196b83398151915260448201526a6e697469616c697a696e6760a81b6064820152608401620000e9565b620001ed620001ef565b565b600054610100900460ff166200024b5760405162461bcd60e51b815260206004820152602b60248201526000805160206200196b83398151915260448201526a6e697469616c697a696e6760a81b6064820152608401620000e9565b620001ed33603380546001600160a01b038381166001600160a01b0319831681179093556040519116919082907f8be0079c531659141344cd1fd0a4f28419497f9722a3daafe3b4186f6b6457e090600090a35050565b60008060008060808587031215620002b957600080fd5b505082516020840151604085015160609095015191969095509092509050565b61168280620002e96000396000f3fe6080604052600436106101ba5760003560e01c80638ccc6e16116100ec578063c9a6bd511161008a578063da0239a611610064578063da0239a6146104b7578063f2fde38b146104cd578063f4a0a528146104ed578063fcdec5341461050d57600080fd5b8063c9a6bd5114610462578063d00ebaeb14610477578063d22f14891461049757600080fd5b80638f7a0c49116100c65780638f7a0c491461040d578063a1545ef514610422578063b76d9db914610437578063b7dc47af1461044c57600080fd5b80638ccc6e16146103c55780638da5cb5b146103da5780638e3d7ae7146103f857600080fd5b80636324364311610159578063690d832011610133578063690d832014610364578063715018a61461038457806378e97925146103995780637db79418146103af57600080fd5b806363243643146102de578063654020d7146103165780636817c76c1461034e57600080fd5b8063223d534b11610195578063223d534b146102315780632ca7512d1461025e57806360a2da441461027e578063619f65651461029e57600080fd5b80622fc804146101c657806308becc97146101e85780631426df7b1461020857600080fd5b366101c157005b600080fd5b3480156101d257600080fd5b506101e66101e1366004611384565b610515565b005b3480156101f457600080fd5b506101e6610203366004611384565b6105e7565b34801561021457600080fd5b5061021e60695481565b6040519081526020015b60405180910390f35b34801561023d57600080fd5b5061021e61024c3660046113a6565b606d6020526000908152604090205481565b34801561026a57600080fd5b506101e66102793660046113a6565b6106b0565b34801561028a57600080fd5b506101e66102993660046113bf565b610700565b3480156102aa57600080fd5b506102ce6102b93660046113a6565b606e6020526000908152604090205460ff1681565b6040519015158152602001610228565b3480156102ea57600080fd5b5061021e6102f93660046113f1565b606f60209081526000928352604080842090915290825290205481565b34801561032257600080fd5b50606654610336906001600160a01b031681565b6040516001600160a01b039091168152602001610228565b34801561035a57600080fd5b5061021e606a5481565b34801561037057600080fd5b506101e661037f366004611384565b61082e565b34801561039057600080fd5b506101e66108b5565b3480156103a557600080fd5b5061021e60675481565b3480156103bb57600080fd5b5061021e606c5481565b3480156103d157600080fd5b5061021e601e81565b3480156103e657600080fd5b506033546001600160a01b0316610336565b34801561040457600080fd5b506101e66108c9565b34801561041957600080fd5b5061021e604281565b34801561042e57600080fd5b5061021e610c52565b34801561044357600080fd5b5061021e602481565b34801561045857600080fd5b5061021e60685481565b34801561046e57600080fd5b5061021e605881565b34801561048357600080fd5b50606554610336906001600160a01b031681565b3480156104a357600080fd5b506101e66104b23660046113a6565b610c75565b3480156104c357600080fd5b5061021e606b5481565b3480156104d957600080fd5b506101e66104e8366004611384565b610cb9565b3480156104f957600080fd5b506101e66105083660046113a6565b610d32565b6101e6610d76565b61051d6110b6565b6065546001600160a01b03161561058b5760405162461bcd60e51b815260206004820152602760248201527f4379626572466f7274756e65476f643a206d65726974436f696e20686173206260448201526619595b881cd95d60ca1b60648201526084015b60405180910390fd5b606580546001600160a01b0319166001600160a01b0383169081179091556040805133815260208101929092527f87a0cb2691d97e4b82f03339ec77464fa872916b6ec117212f18469c0aa79b9091015b60405180910390a150565b6105ef6110b6565b6066546001600160a01b03161561065b5760405162461bcd60e51b815260206004820152602a60248201527f4379626572466f7274756e65476f643a20666f7274756e65537469636b2068616044820152691cc81899595b881cd95d60b21b6064820152608401610582565b606680546001600160a01b0319166001600160a01b0383169081179091556040805133815260208101929092527faac60737ab2db5909f0c752457d0575d6e7531fd5afa20d0d824dd11c735b32f91016105dc565b6106b86110b6565b60688054908290556040517f7d04a0355efa5ef2f43cad750aa6ac7f24661cfe8fc9b8594c91e03aad14688d906106f49033908490869061141d565b60405180910390a15050565b600054610100900460ff16158080156107205750600054600160ff909116105b8061073a5750303b15801561073a575060005460ff166001145b61079d5760405162461bcd60e51b815260206004820152602e60248201527f496e697469616c697a61626c653a20636f6e747261637420697320616c72656160448201526d191e481a5b9a5d1a585b1a5e995960921b6064820152608401610582565b6000805460ff1916600117905580156107c0576000805461ff0019166101001790555b6107c8611110565b606785905560698490556068839055606a829055606b8390558015610827576000805461ff0019169055604051600181527f7f26b83ff96e1f2b6a682f133852f6798a09c465da95921460cefb38474024989060200160405180910390a15b5050505050565b6108366110b6565b60405147906001600160a01b0383169082156108fc029083906000818181858888f1935050505015801561086e573d6000803e3d6000fd5b50604080513381526001600160a01b03841660208201529081018290527f6b1f4ce962fec27598edceab6195c77516c3df32025eaf0c38d0d4009ac3bd48906060016106f4565b6108bd6110b6565b6108c7600061113f565b565b6065546040805163313ce56760e01b815290516000926001600160a01b03169163313ce5679160048083019260209291908290030181865afa158015610913573d6000803e3d6000fd5b505050506040513d601f19601f82011682018060405250810190610937919061143e565b60ff169050600061094982600a61155b565b610954906008611567565b905061096182600a61155b565b61096c906008611567565b606554604051636eb1769f60e11b81523360048201523060248201526001600160a01b039091169063dd62ed3e90604401602060405180830381865afa1580156109ba573d6000803e3d6000fd5b505050506040513d601f19601f820116820180604052508101906109de919061157e565b11610a515760405162461bcd60e51b815260206004820152603c60248201527f4379626572466f7274756e65476f643a2052657175697265732038204d65726960448201527f7420436f696e20746f206472617720666f7274756e6520737469636b000000006064820152608401610582565b6065546040516323b872dd60e01b8152336004820152306024820152604481018390526001600160a01b03909116906323b872dd906064016020604051808303816000875af1158015610aa8573d6000803e3d6000fd5b505050506040513d601f19601f82011682018060405250810190610acc9190611597565b50606554604051630852cd8d60e31b8152600481018390526001600160a01b03909116906342966c6890602401600060405180830381600087803b158015610b1357600080fd5b505af1158015610b27573d6000803e3d6000fd5b50506066546040516311e966dd60e21b8152336004820152600093506001600160a01b0390911691506347a59b74906024016020604051808303816000875af1158015610b78573d6000803e3d6000fd5b505050506040513d601f19601f82011682018060405250810190610b9c919061157e565b606654604051630ef95d5d60e31b8152600481018390529192506000916001600160a01b03909116906377caeae890602401602060405180830381865afa158015610beb573d6000803e3d6000fd5b505050506040513d601f19601f82011682018060405250810190610c0f919061157e565b90507f5a5b55359c22bf9271a592bcb6f01638e6a77583cb45fc2679f32324750ec22c338383604051610c449392919061141d565b60405180910390a150505050565b60006201518060675442610c6691906115b9565b610c7091906115cc565b905090565b610c7d6110b6565b60698054908290556040517fd642e463339b60cb1692955dd9977759fd4d0e5026f30d0b473578e8767397d2906106f49033908490869061141d565b610cc16110b6565b6001600160a01b038116610d265760405162461bcd60e51b815260206004820152602660248201527f4f776e61626c653a206e6577206f776e657220697320746865207a65726f206160448201526564647265737360d01b6064820152608401610582565b610d2f8161113f565b50565b610d3a6110b6565b606a8054908290556040517f55cc83342b4c144a74960fdf0dfe1a7af4cbb77aaccb471b088d5fe0bdad1d4c906106f49033908490869061141d565b606a54341015610de05760405162461bcd60e51b815260206004820152602f60248201527f4379626572466f7274756e65476f643a207061796d656e7420616d6f756e742060448201526e1a5cc81a5b9cdd59999a58da595b9d608a1b6064820152608401610582565b6000610dea610c52565b6000818152606f60209081526040808320338452909152902054909150600311610e6c5760405162461bcd60e51b815260206004820152602d60248201527f4379626572466f7274756e65476f643a204d696e7420757020746f207468726560448201526c652074696d657320612064617960981b6064820152608401610582565b6000818152606e602052604090205460ff16610ede576000818152606e602052604090819020805460ff19166001179055606854606b55517fbea77d7032571316759bda46ee1544473a0b842e1ad3b20aec6c09b5c588b88990610ed59033908490429061141d565b60405180910390a15b6000610ee8611191565b905060008111610f605760405162461bcd60e51b815260206004820152603760248201527f4379626572466f7274756e65476f643a20546f6461792773204d45524954206860448201527f6173206265656e206469737472696275746564206f75740000000000000000006064820152608401610582565b6000828152606f602090815260408083203384529091528120805460019290610f8a9084906115ee565b90915550506065546040805163313ce56760e01b815290516000926001600160a01b03169163313ce5679160048083019260209291908290030181865afa158015610fd9573d6000803e3d6000fd5b505050506040513d601f19601f82011682018060405250810190610ffd919061143e565b60ff16905060008261101083600a61155b565b61101a9190611567565b6065546040516340c10f1960e01b8152336004820152602481018390529192506001600160a01b0316906340c10f1990604401600060405180830381600087803b15801561106757600080fd5b505af115801561107b573d6000803e3d6000fd5b505060408051338152602081018590527f9dff41da70aedfc40cf8d5e57e66ae3053b5477933045f08db4b19e24918bec99350019050610c44565b6033546001600160a01b031633146108c75760405162461bcd60e51b815260206004820181905260248201527f4f776e61626c653a2063616c6c6572206973206e6f7420746865206f776e65726044820152606401610582565b600054610100900460ff166111375760405162461bcd60e51b815260040161058290611601565b6108c76112cb565b603380546001600160a01b038381166001600160a01b0319831681179093556040519116919082907f8be0079c531659141344cd1fd0a4f28419497f9722a3daafe3b4186f6b6457e090600090a35050565b6000606b546000036111a35750600090565b60006111ad610c52565b6000818152606d6020908152604080832054606554825163313ce56760e01b8152925195965090946001600160a01b039091169263313ce56792600480820193918290030181865afa158015611207573d6000803e3d6000fd5b505050506040513d601f19601f8201168201806040525081019061122b919061143e565b60ff169050600482106112625760695461124682600a61155b565b606c546112539190611567565b61125d91906115cc565b61126c565b61126c81836112fb565b9350606b54841061128757606b80546000909155935061129f565b83606b600082825461129991906115b9565b90915550505b606c84905583156112c5576112b58260016115ee565b6000848152606d60205260409020555b50505090565b600054610100900460ff166112f25760405162461bcd60e51b815260040161058290611601565b6108c73361113f565b60008160000361132357605861131284600a61155b565b61131c9190611567565b9050611362565b8160010361133857604261131284600a61155b565b8160020361134d57602461131284600a61155b565b8160030361136257601e61131284600a61155b565b92915050565b80356001600160a01b038116811461137f57600080fd5b919050565b60006020828403121561139657600080fd5b61139f82611368565b9392505050565b6000602082840312156113b857600080fd5b5035919050565b600080600080608085870312156113d557600080fd5b5050823594602084013594506040840135936060013592509050565b6000806040838503121561140457600080fd5b8235915061141460208401611368565b90509250929050565b6001600160a01b039390931683526020830191909152604082015260600190565b60006020828403121561145057600080fd5b815160ff8116811461139f57600080fd5b634e487b7160e01b600052601160045260246000fd5b600181815b808511156114b257816000190482111561149857611498611461565b808516156114a557918102915b93841c939080029061147c565b509250929050565b6000826114c957506001611362565b816114d657506000611362565b81600181146114ec57600281146114f657611512565b6001915050611362565b60ff84111561150757611507611461565b50506001821b611362565b5060208310610133831016604e8410600b8410161715611535575081810a611362565b61153f8383611477565b806000190482111561155357611553611461565b029392505050565b600061139f83836114ba565b808202811582820484141761136257611362611461565b60006020828403121561159057600080fd5b5051919050565b6000602082840312156115a957600080fd5b8151801515811461139f57600080fd5b8181038181111561136257611362611461565b6000826115e957634e487b7160e01b600052601260045260246000fd5b500490565b8082018082111561136257611362611461565b6020808252602b908201527f496e697469616c697a61626c653a20636f6e7472616374206973206e6f74206960408201526a6e697469616c697a696e6760a81b60608201526080019056fea26469706673582212201c14bf2ead4f7f2b069101f2936721fefafd7780270aa9291c7c7b8268a54c5b64736f6c63430008140033496e697469616c697a61626c653a20636f6e7472616374206973206e6f742069",
  "devdoc": {
    "events": {
      "Initialized(uint8)": {
        "details": "Triggered when the contract has been initialized or reinitialized."
      }
    },
    "kind": "dev",
    "methods": {
      "drawFortune()": {
        "details": "Draws a fortune stick for the caller and charges caller 8 Merit Coin. Requirements: - The caller must have approved the contract to spend 8 Merit Coin."
      },
      "getDays()": {
        "details": "Returns the number of days.",
        "returns": {
          "_0": "The number of days as a uint256 value."
        }
      },
      "initFortuneStick(address)": {
        "details": "Initializes the FortuneStick contract address.",
        "params": {
          "_fortuneStick": "The address of the FortuneStick contract. Requirements: - Only the contract owner can call this function."
        }
      },
      "initMeritCoin(address)": {
        "details": "Initializes the MeritCoin contract address.",
        "params": {
          "_meritCoin": "The address of the MeritCoin contract. Requirements: - Only the contract owner can call this function."
        }
      },
      "initialize(uint256,uint256,uint256,uint256)": {
        "details": "Initializes the CyberFortuneGod contract with the specified parameters.",
        "params": {
          "_decreaseCoefficient": "The decrease coefficient for the contract.",
          "_mintPrice": "The mint price for the contract.",
          "_startTime": "The start time for the contract.",
          "_totalSupplyByDay": "The total supply by day for the contract."
        }
      },
      "offeringIncense()": {
        "details": "Performs the action of offering incense, mint MeritCoin for caller"
      },
      "owner()": {
        "details": "Returns the address of the current owner."
      },
      "renounceOwnership()": {
        "details": "Leaves the contract without owner. It will not be possible to call `onlyOwner` functions anymore. Can only be called by the current owner. NOTE: Renouncing ownership will leave the contract without an owner, thereby removing any functionality that is only available to the owner."
      },
      "setDecreaseCoefficient(uint256)": {
        "details": "Sets the decrease coefficient for the MeritCoin gained in `offeringIncense` Only the contract owner can call this function.",
        "params": {
          "_new": "The new value for the decrease coefficient."
        }
      },
      "setMintPrice(uint256)": {
        "details": "Sets the mint price for MeritCoin (in offeringIncense)",
        "params": {
          "_new": "The new mint price to be set. Requirements: - Only the contract owner can call this function."
        }
      },
      "setTotalSupplyByDay(uint256)": {
        "details": "Sets the total supply by day. Can only be called by the contract owner.",
        "params": {
          "_new": "The new total supply value."
        }
      },
      "transferOwnership(address)": {
        "details": "Transfers ownership of the contract to a new account (`newOwner`). Can only be called by the current owner."
      },
      "withdrawETH(address)": {
        "details": "Allows the owner to withdraw ETH from the contract.",
        "params": {
          "_to": "The address to which the ETH will be transferred."
        }
      }
    },
    "version": 1
  },
  "userdoc": {
    "kind": "user",
    "methods": {},
    "version": 1
  },
  "storageLayout": {
    "storage": [
      {
        "astId": 138,
        "contract": "contracts/CyberFortuneGod.sol:CyberFortuneGod",
        "label": "_initialized",
        "offset": 0,
        "slot": "0",
        "type": "t_uint8"
      },
      {
        "astId": 141,
        "contract": "contracts/CyberFortuneGod.sol:CyberFortuneGod",
        "label": "_initializing",
        "offset": 1,
        "slot": "0",
        "type": "t_bool"
      },
      {
        "astId": 566,
        "contract": "contracts/CyberFortuneGod.sol:CyberFortuneGod",
        "label": "__gap",
        "offset": 0,
        "slot": "1",
        "type": "t_array(t_uint256)50_storage"
      },
      {
        "astId": 10,
        "contract": "contracts/CyberFortuneGod.sol:CyberFortuneGod",
        "label": "_owner",
        "offset": 0,
        "slot": "51",
        "type": "t_address"
      },
      {
        "astId": 130,
        "contract": "contracts/CyberFortuneGod.sol:CyberFortuneGod",
        "label": "__gap",
        "offset": 0,
        "slot": "52",
        "type": "t_array(t_uint256)49_storage"
      },
      {
        "astId": 2780,
        "contract": "contracts/CyberFortuneGod.sol:CyberFortuneGod",
        "label": "meritCoin",
        "offset": 0,
        "slot": "101",
        "type": "t_address"
      },
      {
        "astId": 2782,
        "contract": "contracts/CyberFortuneGod.sol:CyberFortuneGod",
        "label": "fortuneStick",
        "offset": 0,
        "slot": "102",
        "type": "t_address"
      },
      {
        "astId": 2784,
        "contract": "contracts/CyberFortuneGod.sol:CyberFortuneGod",
        "label": "startTime",
        "offset": 0,
        "slot": "103",
        "type": "t_uint256"
      },
      {
        "astId": 2786,
        "contract": "contracts/CyberFortuneGod.sol:CyberFortuneGod",
        "label": "totalSupplyByDay",
        "offset": 0,
        "slot": "104",
        "type": "t_uint256"
      },
      {
        "astId": 2788,
        "contract": "contracts/CyberFortuneGod.sol:CyberFortuneGod",
        "label": "decreaseCoefficient",
        "offset": 0,
        "slot": "105",
        "type": "t_uint256"
      },
      {
        "astId": 2790,
        "contract": "contracts/CyberFortuneGod.sol:CyberFortuneGod",
        "label": "mintPrice",
        "offset": 0,
        "slot": "106",
        "type": "t_uint256"
      },
      {
        "astId": 2792,
        "contract": "contracts/CyberFortuneGod.sol:CyberFortuneGod",
        "label": "remainingSupply",
        "offset": 0,
        "slot": "107",
        "type": "t_uint256"
      },
      {
        "astId": 2794,
        "contract": "contracts/CyberFortuneGod.sol:CyberFortuneGod",
        "label": "lastDecrement",
        "offset": 0,
        "slot": "108",
        "type": "t_uint256"
      },
      {
        "astId": 2798,
        "contract": "contracts/CyberFortuneGod.sol:CyberFortuneGod",
        "label": "mintNum",
        "offset": 0,
        "slot": "109",
        "type": "t_mapping(t_uint256,t_uint256)"
      },
      {
        "astId": 2802,
        "contract": "contracts/CyberFortuneGod.sol:CyberFortuneGod",
        "label": "updateSupplyByDay",
        "offset": 0,
        "slot": "110",
        "type": "t_mapping(t_uint256,t_bool)"
      },
      {
        "astId": 2808,
        "contract": "contracts/CyberFortuneGod.sol:CyberFortuneGod",
        "label": "userMintNumByDay",
        "offset": 0,
        "slot": "111",
        "type": "t_mapping(t_uint256,t_mapping(t_address,t_uint256))"
      }
    ],
    "types": {
      "t_address": {
        "encoding": "inplace",
        "label": "address",
        "numberOfBytes": "20"
      },
      "t_array(t_uint256)49_storage": {
        "base": "t_uint256",
        "encoding": "inplace",
        "label": "uint256[49]",
        "numberOfBytes": "1568"
      },
      "t_array(t_uint256)50_storage": {
        "base": "t_uint256",
        "encoding": "inplace",
        "label": "uint256[50]",
        "numberOfBytes": "1600"
      },
      "t_bool": {
        "encoding": "inplace",
        "label": "bool",
        "numberOfBytes": "1"
      },
      "t_mapping(t_address,t_uint256)": {
        "encoding": "mapping",
        "key": "t_address",
        "label": "mapping(address => uint256)",
        "numberOfBytes": "32",
        "value": "t_uint256"
      },
      "t_mapping(t_uint256,t_bool)": {
        "encoding": "mapping",
        "key": "t_uint256",
        "label": "mapping(uint256 => bool)",
        "numberOfBytes": "32",
        "value": "t_bool"
      },
      "t_mapping(t_uint256,t_mapping(t_address,t_uint256))": {
        "encoding": "mapping",
        "key": "t_uint256",
        "label": "mapping(uint256 => mapping(address => uint256))",
        "numberOfBytes": "32",
        "value": "t_mapping(t_address,t_uint256)"
      },
      "t_mapping(t_uint256,t_uint256)": {
        "encoding": "mapping",
        "key": "t_uint256",
        "label": "mapping(uint256 => uint256)",
        "numberOfBytes": "32",
        "value": "t_uint256"
      },
      "t_uint256": {
        "encoding": "inplace",
        "label": "uint256",
        "numberOfBytes": "32"
      },
      "t_uint8": {
        "encoding": "inplace",
        "label": "uint8",
        "numberOfBytes": "1"
      }
    }
  }
}