{
  "address": "0x48996b21d5f88D7f9AE1B98926df2a4d9c6169b7",
  "abi": [
    {
      "inputs": [
        {
          "internalType": "address",
          "name": "_minter",
          "type": "address"
        },
        {
          "internalType": "string",
          "name": "_baseURI_",
          "type": "string"
        }
      ],
      "stateMutability": "nonpayable",
      "type": "constructor"
    },
    {
      "anonymous": false,
      "inputs": [
        {
          "indexed": true,
          "internalType": "address",
          "name": "owner",
          "type": "address"
        },
        {
          "indexed": true,
          "internalType": "address",
          "name": "approved",
          "type": "address"
        },
        {
          "indexed": true,
          "internalType": "uint256",
          "name": "tokenId",
          "type": "uint256"
        }
      ],
      "name": "Approval",
      "type": "event"
    },
    {
      "anonymous": false,
      "inputs": [
        {
          "indexed": true,
          "internalType": "address",
          "name": "owner",
          "type": "address"
        },
        {
          "indexed": true,
          "internalType": "address",
          "name": "operator",
          "type": "address"
        },
        {
          "indexed": false,
          "internalType": "bool",
          "name": "approved",
          "type": "bool"
        }
      ],
      "name": "ApprovalForAll",
      "type": "event"
    },
    {
      "anonymous": false,
      "inputs": [
        {
          "indexed": true,
          "internalType": "address",
          "name": "previousOwner",
          "type": "address"
        },
        {
          "indexed": true,
          "internalType": "address",
          "name": "newOwner",
          "type": "address"
        }
      ],
      "name": "OwnershipTransferred",
      "type": "event"
    },
    {
      "anonymous": false,
      "inputs": [
        {
          "indexed": false,
          "internalType": "address",
          "name": "_sender",
          "type": "address"
        },
        {
          "indexed": false,
          "internalType": "string",
          "name": "_old",
          "type": "string"
        },
        {
          "indexed": false,
          "internalType": "string",
          "name": "_new",
          "type": "string"
        }
      ],
      "name": "SetBaseURI",
      "type": "event"
    },
    {
      "anonymous": false,
      "inputs": [
        {
          "indexed": true,
          "internalType": "address",
          "name": "from",
          "type": "address"
        },
        {
          "indexed": true,
          "internalType": "address",
          "name": "to",
          "type": "address"
        },
        {
          "indexed": true,
          "internalType": "uint256",
          "name": "tokenId",
          "type": "uint256"
        }
      ],
      "name": "Transfer",
      "type": "event"
    },
    {
      "inputs": [
        {
          "internalType": "address",
          "name": "to",
          "type": "address"
        },
        {
          "internalType": "uint256",
          "name": "tokenId",
          "type": "uint256"
        }
      ],
      "name": "approve",
      "outputs": [],
      "stateMutability": "nonpayable",
      "type": "function"
    },
    {
      "inputs": [
        {
          "internalType": "address",
          "name": "owner",
          "type": "address"
        }
      ],
      "name": "balanceOf",
      "outputs": [
        {
          "internalType": "uint256",
          "name": "",
          "type": "uint256"
        }
      ],
      "stateMutability": "view",
      "type": "function"
    },
    {
      "inputs": [],
      "name": "baseURI",
      "outputs": [
        {
          "internalType": "string",
          "name": "",
          "type": "string"
        }
      ],
      "stateMutability": "view",
      "type": "function"
    },
    {
      "inputs": [
        {
          "internalType": "address",
          "name": "_to",
          "type": "address"
        }
      ],
      "name": "draw",
      "outputs": [
        {
          "internalType": "uint256",
          "name": "_tokenId",
          "type": "uint256"
        }
      ],
      "stateMutability": "nonpayable",
      "type": "function"
    },
    {
      "inputs": [
        {
          "internalType": "uint256",
          "name": "tokenId",
          "type": "uint256"
        }
      ],
      "name": "getApproved",
      "outputs": [
        {
          "internalType": "address",
          "name": "",
          "type": "address"
        }
      ],
      "stateMutability": "view",
      "type": "function"
    },
    {
      "inputs": [
        {
          "internalType": "uint256",
          "name": "_tokenId",
          "type": "uint256"
        }
      ],
      "name": "getStickNo",
      "outputs": [
        {
          "internalType": "address",
          "name": "_tokenMinter",
          "type": "address"
        },
        {
          "internalType": "uint256",
          "name": "_stickNo",
          "type": "uint256"
        }
      ],
      "stateMutability": "view",
      "type": "function"
    },
    {
      "inputs": [
        {
          "internalType": "address",
          "name": "owner",
          "type": "address"
        },
        {
          "internalType": "address",
          "name": "operator",
          "type": "address"
        }
      ],
      "name": "isApprovedForAll",
      "outputs": [
        {
          "internalType": "bool",
          "name": "",
          "type": "bool"
        }
      ],
      "stateMutability": "view",
      "type": "function"
    },
    {
      "inputs": [
        {
          "internalType": "uint256",
          "name": "",
          "type": "uint256"
        }
      ],
      "name": "mintTime",
      "outputs": [
        {
          "internalType": "uint256",
          "name": "",
          "type": "uint256"
        }
      ],
      "stateMutability": "view",
      "type": "function"
    },
    {
      "inputs": [],
      "name": "minter",
      "outputs": [
        {
          "internalType": "address",
          "name": "",
          "type": "address"
        }
      ],
      "stateMutability": "view",
      "type": "function"
    },
    {
      "inputs": [],
      "name": "name",
      "outputs": [
        {
          "internalType": "string",
          "name": "",
          "type": "string"
        }
      ],
      "stateMutability": "view",
      "type": "function"
    },
    {
      "inputs": [],
      "name": "owner",
      "outputs": [
        {
          "internalType": "address",
          "name": "",
          "type": "address"
        }
      ],
      "stateMutability": "view",
      "type": "function"
    },
    {
      "inputs": [
        {
          "internalType": "uint256",
          "name": "tokenId",
          "type": "uint256"
        }
      ],
      "name": "ownerOf",
      "outputs": [
        {
          "internalType": "address",
          "name": "",
          "type": "address"
        }
      ],
      "stateMutability": "view",
      "type": "function"
    },
    {
      "inputs": [],
      "name": "renounceOwnership",
      "outputs": [],
      "stateMutability": "nonpayable",
      "type": "function"
    },
    {
      "inputs": [
        {
          "internalType": "address",
          "name": "from",
          "type": "address"
        },
        {
          "internalType": "address",
          "name": "to",
          "type": "address"
        },
        {
          "internalType": "uint256",
          "name": "tokenId",
          "type": "uint256"
        }
      ],
      "name": "safeTransferFrom",
      "outputs": [],
      "stateMutability": "nonpayable",
      "type": "function"
    },
    {
      "inputs": [
        {
          "internalType": "address",
          "name": "from",
          "type": "address"
        },
        {
          "internalType": "address",
          "name": "to",
          "type": "address"
        },
        {
          "internalType": "uint256",
          "name": "tokenId",
          "type": "uint256"
        },
        {
          "internalType": "bytes",
          "name": "data",
          "type": "bytes"
        }
      ],
      "name": "safeTransferFrom",
      "outputs": [],
      "stateMutability": "nonpayable",
      "type": "function"
    },
    {
      "inputs": [
        {
          "internalType": "address",
          "name": "operator",
          "type": "address"
        },
        {
          "internalType": "bool",
          "name": "approved",
          "type": "bool"
        }
      ],
      "name": "setApprovalForAll",
      "outputs": [],
      "stateMutability": "nonpayable",
      "type": "function"
    },
    {
      "inputs": [
        {
          "internalType": "string",
          "name": "_new",
          "type": "string"
        }
      ],
      "name": "setBaseURI",
      "outputs": [],
      "stateMutability": "nonpayable",
      "type": "function"
    },
    {
      "inputs": [
        {
          "internalType": "bytes4",
          "name": "interfaceId",
          "type": "bytes4"
        }
      ],
      "name": "supportsInterface",
      "outputs": [
        {
          "internalType": "bool",
          "name": "",
          "type": "bool"
        }
      ],
      "stateMutability": "view",
      "type": "function"
    },
    {
      "inputs": [],
      "name": "symbol",
      "outputs": [
        {
          "internalType": "string",
          "name": "",
          "type": "string"
        }
      ],
      "stateMutability": "view",
      "type": "function"
    },
    {
      "inputs": [
        {
          "internalType": "uint256",
          "name": "index",
          "type": "uint256"
        }
      ],
      "name": "tokenByIndex",
      "outputs": [
        {
          "internalType": "uint256",
          "name": "",
          "type": "uint256"
        }
      ],
      "stateMutability": "view",
      "type": "function"
    },
    {
      "inputs": [
        {
          "internalType": "uint256",
          "name": "",
          "type": "uint256"
        }
      ],
      "name": "tokenMinter",
      "outputs": [
        {
          "internalType": "address",
          "name": "",
          "type": "address"
        }
      ],
      "stateMutability": "view",
      "type": "function"
    },
    {
      "inputs": [
        {
          "internalType": "address",
          "name": "owner",
          "type": "address"
        },
        {
          "internalType": "uint256",
          "name": "index",
          "type": "uint256"
        }
      ],
      "name": "tokenOfOwnerByIndex",
      "outputs": [
        {
          "internalType": "uint256",
          "name": "",
          "type": "uint256"
        }
      ],
      "stateMutability": "view",
      "type": "function"
    },
    {
      "inputs": [
        {
          "internalType": "uint256",
          "name": "_tokenId",
          "type": "uint256"
        }
      ],
      "name": "tokenURI",
      "outputs": [
        {
          "internalType": "string",
          "name": "",
          "type": "string"
        }
      ],
      "stateMutability": "view",
      "type": "function"
    },
    {
      "inputs": [],
      "name": "totalSupply",
      "outputs": [
        {
          "internalType": "uint256",
          "name": "",
          "type": "uint256"
        }
      ],
      "stateMutability": "view",
      "type": "function"
    },
    {
      "inputs": [
        {
          "internalType": "address",
          "name": "from",
          "type": "address"
        },
        {
          "internalType": "address",
          "name": "to",
          "type": "address"
        },
        {
          "internalType": "uint256",
          "name": "tokenId",
          "type": "uint256"
        }
      ],
      "name": "transferFrom",
      "outputs": [],
      "stateMutability": "nonpayable",
      "type": "function"
    },
    {
      "inputs": [
        {
          "internalType": "address",
          "name": "newOwner",
          "type": "address"
        }
      ],
      "name": "transferOwnership",
      "outputs": [],
      "stateMutability": "nonpayable",
      "type": "function"
    }
  ],
  "transactionHash": "0xcd95d95a26dd7b277c2d7dc4caaae9b8777b4d5f0c9ec37b13e93a8bc93d3280",
  "args": [
    "0x481789014eb2195aB0e6985eDddD5e8Be1CD6995",
    "https://test.caishenye.net"
  ],
  "numDeployments": 1,
  "solcInputHash": "163a3bf72478615ba980fe097bc43a82",
  "bytecode": "0x60a06040523480156200001157600080fd5b50604051620024b4380380620024b4833981016040819052620000349162000143565b604051806040016040528060128152602001714472617720466f7274756e6520537469636b60701b8152506040518060400160405280600381526020016244465360e81b815250620000956200008f620000d960201b60201c565b620000dd565b6001620000a38382620002c8565b506002620000b28282620002c8565b5050506001600160a01b038216608052600b620000d08282620002c8565b50505062000394565b3390565b600080546001600160a01b038381166001600160a01b0319831681178455604051919092169283917f8be0079c531659141344cd1fd0a4f28419497f9722a3daafe3b4186f6b6457e09190a35050565b634e487b7160e01b600052604160045260246000fd5b600080604083850312156200015757600080fd5b82516001600160a01b03811681146200016f57600080fd5b602084810151919350906001600160401b03808211156200018f57600080fd5b818601915086601f830112620001a457600080fd5b815181811115620001b957620001b96200012d565b604051601f8201601f19908116603f01168101908382118183101715620001e457620001e46200012d565b816040528281528986848701011115620001fd57600080fd5b600093505b8284101562000221578484018601518185018701529285019262000202565b60008684830101528096505050505050509250929050565b600181811c908216806200024e57607f821691505b6020821081036200026f57634e487b7160e01b600052602260045260246000fd5b50919050565b601f821115620002c357600081815260208120601f850160051c810160208610156200029e5750805b601f850160051c820191505b81811015620002bf57828155600101620002aa565b5050505b505050565b81516001600160401b03811115620002e457620002e46200012d565b620002fc81620002f5845462000239565b8462000275565b602080601f8311600181146200033457600084156200031b5750858301515b600019600386901b1c1916600185901b178555620002bf565b600085815260208120601f198616915b82811015620003655788860151825594840194600190910190840162000344565b5085821015620003845787850151600019600388901b60f8161c191681555b5050505050600190811b01905550565b6080516120fd620003b7600039600081816101d501526106fa01526120fd6000f3fe608060405234801561001057600080fd5b506004361061018e5760003560e01c80636c0360eb116100de57806395d89b4111610097578063c87b56dd11610071578063c87b56dd1461038b578063e985e9c51461039e578063f1c7f40e146103da578063f2fde38b146103fa57600080fd5b806395d89b411461035d578063a22cb46514610365578063b88d4fde1461037857600080fd5b80636c0360eb146102ce57806370a08231146102d6578063715018a6146102e957806377caeae8146102f15780637c57d947146103235780638da5cb5b1461034c57600080fd5b806323b872dd1161014b57806347a59b741161012557806347a59b74146102825780634f6ccce71461029557806355f804b3146102a85780636352211e146102bb57600080fd5b806323b872dd146102495780632f745c591461025c57806342842e0e1461026f57600080fd5b806301ffc9a71461019357806306fdde03146101bb57806307546172146101d0578063081812fc1461020f578063095ea7b31461022257806318160ddd14610237575b600080fd5b6101a66101a1366004611966565b61040d565b60405190151581526020015b60405180910390f35b6101c3610438565b6040516101b291906119d3565b6101f77f000000000000000000000000000000000000000000000000000000000000000081565b6040516001600160a01b0390911681526020016101b2565b6101f761021d3660046119e6565b6104ca565b610235610230366004611a16565b6104f1565b005b6009545b6040519081526020016101b2565b610235610257366004611a40565b61060b565b61023b61026a366004611a16565b61063c565b61023561027d366004611a40565b6106d2565b61023b610290366004611a7c565b6106ed565b61023b6102a33660046119e6565b6107bb565b6102356102b6366004611b23565b61084e565b6101f76102c93660046119e6565b610934565b6101c3610994565b61023b6102e4366004611a7c565b610a22565b610235610aa8565b6103046102ff3660046119e6565b610abc565b604080516001600160a01b0390931683526020830191909152016101b2565b6101f76103313660046119e6565b600d602052600090815260409020546001600160a01b031681565b6000546001600160a01b03166101f7565b6101c3610b37565b610235610373366004611b6c565b610b46565b610235610386366004611ba8565b610b55565b6101c36103993660046119e6565b610b8d565b6101a66103ac366004611c24565b6001600160a01b03918216600090815260066020908152604080832093909416825291909152205460ff1690565b61023b6103e83660046119e6565b600c6020526000908152604090205481565b610235610408366004611a7c565b610c3d565b60006001600160e01b0319821663780e9d6360e01b1480610432575061043282610cb6565b92915050565b60606001805461044790611c57565b80601f016020809104026020016040519081016040528092919081815260200182805461047390611c57565b80156104c05780601f10610495576101008083540402835291602001916104c0565b820191906000526020600020905b8154815290600101906020018083116104a357829003601f168201915b5050505050905090565b60006104d582610d06565b506000908152600560205260409020546001600160a01b031690565b60006104fc82610934565b9050806001600160a01b0316836001600160a01b03160361056e5760405162461bcd60e51b815260206004820152602160248201527f4552433732313a20617070726f76616c20746f2063757272656e74206f776e656044820152603960f91b60648201526084015b60405180910390fd5b336001600160a01b038216148061058a575061058a81336103ac565b6105fc5760405162461bcd60e51b815260206004820152603e60248201527f4552433732313a20617070726f76652063616c6c6572206973206e6f7420746f60448201527f6b656e206f776e6572206e6f7220617070726f76656420666f7220616c6c00006064820152608401610565565b6106068383610d65565b505050565b6106153382610dd3565b6106315760405162461bcd60e51b815260040161056590611c91565b610606838383610e51565b600061064783610a22565b82106106a95760405162461bcd60e51b815260206004820152602b60248201527f455243373231456e756d657261626c653a206f776e657220696e646578206f7560448201526a74206f6620626f756e647360a81b6064820152608401610565565b506001600160a01b03919091166000908152600760209081526040808320938352929052205490565b61060683838360405180602001604052806000815250610b55565b6000336001600160a01b037f000000000000000000000000000000000000000000000000000000000000000016146107735760405162461bcd60e51b8152602060048201526024808201527f44726177466f7274756e65537469636b3a20596f7520617265206e6f74206d69604482015263373a32b960e11b6064820152608401610565565b6009546000818152600d6020908152604080832080546001600160a01b0319166001600160a01b038816179055600c909152902042905590506107b68282610ff8565b919050565b60006107c660095490565b82106108295760405162461bcd60e51b815260206004820152602c60248201527f455243373231456e756d657261626c653a20676c6f62616c20696e646578206f60448201526b7574206f6620626f756e647360a01b6064820152608401610565565b6009828154811061083c5761083c611cdf565b90600052602060002001549050919050565b610856611012565b6000600b805461086590611c57565b80601f016020809104026020016040519081016040528092919081815260200182805461089190611c57565b80156108de5780601f106108b3576101008083540402835291602001916108de565b820191906000526020600020905b8154815290600101906020018083116108c157829003601f168201915b5050505050905081600b90816108f49190611d43565b507f888a419ed9f083c91d256876ad4b9675c6c232a73698e8f808b596fbf873758733828460405161092893929190611e03565b60405180910390a15050565b6000818152600360205260408120546001600160a01b0316806104325760405162461bcd60e51b8152602060048201526018602482015277115490cdcc8c4e881a5b9d985b1a59081d1bdad95b88125160421b6044820152606401610565565b600b80546109a190611c57565b80601f01602080910402602001604051908101604052809291908181526020018280546109cd90611c57565b8015610a1a5780601f106109ef57610100808354040283529160200191610a1a565b820191906000526020600020905b8154815290600101906020018083116109fd57829003601f168201915b505050505081565b60006001600160a01b038216610a8c5760405162461bcd60e51b815260206004820152602960248201527f4552433732313a2061646472657373207a65726f206973206e6f7420612076616044820152683634b21037bbb732b960b91b6064820152608401610565565b506001600160a01b031660009081526004602052604090205490565b610ab0611012565b610aba600061106c565b565b6000818152600d6020908152604080832054600c9092528220546001600160a01b039091169190603d30610aef866110bc565b85610af9856110bc565b604051602001610b0c9493929190611e43565b6040516020818303038152906040528051906020012060001c610b2f9190611eb7565b915050915091565b60606002805461044790611c57565b610b513383836111bd565b5050565b610b5f3383610dd3565b610b7b5760405162461bcd60e51b815260040161056590611c91565b610b878484848461128b565b50505050565b6060610b9882610d06565b600080610ba484610abc565b915091506000610bb26112be565b5111610bcd5760405180602001604052806000815250610c35565b610bd56112be565b610bde856110bc565b610be7836110bc565b610bf9856001600160a01b03166112cd565b6000888152600c6020526040902054610c11906110bc565b604051602001610c25959493929190611ecb565b6040516020818303038152906040525b949350505050565b610c45611012565b6001600160a01b038116610caa5760405162461bcd60e51b815260206004820152602660248201527f4f776e61626c653a206e6577206f776e657220697320746865207a65726f206160448201526564647265737360d01b6064820152608401610565565b610cb38161106c565b50565b60006001600160e01b031982166380ac58cd60e01b1480610ce757506001600160e01b03198216635b5e139f60e01b145b8061043257506301ffc9a760e01b6001600160e01b0319831614610432565b6000818152600360205260409020546001600160a01b0316610cb35760405162461bcd60e51b8152602060048201526018602482015277115490cdcc8c4e881a5b9d985b1a59081d1bdad95b88125160421b6044820152606401610565565b600081815260056020526040902080546001600160a01b0319166001600160a01b0384169081179091558190610d9a82610934565b6001600160a01b03167f8c5be1e5ebec7d5bd14f71427d1e84f3dd0314c0f7b2291e5b200ac8c7c3b92560405160405180910390a45050565b600080610ddf83610934565b9050806001600160a01b0316846001600160a01b03161480610e2657506001600160a01b0380821660009081526006602090815260408083209388168352929052205460ff165b80610c355750836001600160a01b0316610e3f846104ca565b6001600160a01b031614949350505050565b826001600160a01b0316610e6482610934565b6001600160a01b031614610ec85760405162461bcd60e51b815260206004820152602560248201527f4552433732313a207472616e736665722066726f6d20696e636f72726563742060448201526437bbb732b960d91b6064820152608401610565565b6001600160a01b038216610f2a5760405162461bcd60e51b8152602060048201526024808201527f4552433732313a207472616e7366657220746f20746865207a65726f206164646044820152637265737360e01b6064820152608401610565565b610f358383836112e3565b610f40600082610d65565b6001600160a01b0383166000908152600460205260408120805460019290610f69908490611f8e565b90915550506001600160a01b0382166000908152600460205260408120805460019290610f97908490611fa1565b909155505060008181526003602052604080822080546001600160a01b0319166001600160a01b0386811691821790925591518493918716917fddf252ad1be2c89b69c2b068fc378daa952ba7f163c4a11628f55a4df523b3ef91a4505050565b610b5182826040518060200160405280600081525061139b565b6000546001600160a01b03163314610aba5760405162461bcd60e51b815260206004820181905260248201527f4f776e61626c653a2063616c6c6572206973206e6f7420746865206f776e65726044820152606401610565565b600080546001600160a01b038381166001600160a01b0319831681178455604051919092169283917f8be0079c531659141344cd1fd0a4f28419497f9722a3daafe3b4186f6b6457e09190a35050565b6060816000036110e35750506040805180820190915260018152600360fc1b602082015290565b8160005b811561110d57806110f781611fb4565b91506111069050600a83611fcd565b91506110e7565b60008167ffffffffffffffff81111561112857611128611a97565b6040519080825280601f01601f191660200182016040528015611152576020820181803683370190505b5090505b8415610c3557611167600183611f8e565b9150611174600a86611eb7565b61117f906030611fa1565b60f81b81838151811061119457611194611cdf565b60200101906001600160f81b031916908160001a9053506111b6600a86611fcd565b9450611156565b816001600160a01b0316836001600160a01b03160361121e5760405162461bcd60e51b815260206004820152601960248201527f4552433732313a20617070726f766520746f2063616c6c6572000000000000006044820152606401610565565b6001600160a01b03838116600081815260066020908152604080832094871680845294825291829020805460ff191686151590811790915591519182527f17307eab39ab6107e8899845ad3d59bd9653f200f220920489ca2b5937696c31910160405180910390a3505050565b611296848484610e51565b6112a2848484846113ce565b610b875760405162461bcd60e51b815260040161056590611fe1565b6060600b805461044790611c57565b60606104326001600160a01b03831660146114cf565b6001600160a01b03831661133e5761133981600980546000838152600a60205260408120829055600182018355919091527f6e1540171b6c0c960b71a7020d9f60077f6af931a8bbf590da0223dacf75c7af0155565b611361565b816001600160a01b0316836001600160a01b031614611361576113618382611672565b6001600160a01b038216611378576106068161170f565b826001600160a01b0316826001600160a01b0316146106065761060682826117be565b6113a58383611802565b6113b260008484846113ce565b6106065760405162461bcd60e51b815260040161056590611fe1565b60006001600160a01b0384163b156114c457604051630a85bd0160e11b81526001600160a01b0385169063150b7a0290611412903390899088908890600401612033565b6020604051808303816000875af192505050801561144d575060408051601f3d908101601f1916820190925261144a91810190612066565b60015b6114aa573d80801561147b576040519150601f19603f3d011682016040523d82523d6000602084013e611480565b606091505b5080516000036114a25760405162461bcd60e51b815260040161056590611fe1565b805181602001fd5b6001600160e01b031916630a85bd0160e11b149050610c35565b506001949350505050565b606060006114de836002612083565b6114e9906002611fa1565b67ffffffffffffffff81111561150157611501611a97565b6040519080825280601f01601f19166020018201604052801561152b576020820181803683370190505b509050600360fc1b8160008151811061154657611546611cdf565b60200101906001600160f81b031916908160001a905350600f60fb1b8160018151811061157557611575611cdf565b60200101906001600160f81b031916908160001a9053506000611599846002612083565b6115a4906001611fa1565b90505b600181111561161c576f181899199a1a9b1b9c1cb0b131b232b360811b85600f16601081106115d8576115d8611cdf565b1a60f81b8282815181106115ee576115ee611cdf565b60200101906001600160f81b031916908160001a90535060049490941c936116158161209a565b90506115a7565b50831561166b5760405162461bcd60e51b815260206004820181905260248201527f537472696e67733a20686578206c656e67746820696e73756666696369656e746044820152606401610565565b9392505050565b6000600161167f84610a22565b6116899190611f8e565b6000838152600860205260409020549091508082146116dc576001600160a01b03841660009081526007602090815260408083208584528252808320548484528184208190558352600890915290208190555b5060009182526008602090815260408084208490556001600160a01b039094168352600781528383209183525290812055565b60095460009061172190600190611f8e565b6000838152600a60205260408120546009805493945090928490811061174957611749611cdf565b90600052602060002001549050806009838154811061176a5761176a611cdf565b6000918252602080832090910192909255828152600a909152604080822084905585825281205560098054806117a2576117a26120b1565b6001900381819060005260206000200160009055905550505050565b60006117c983610a22565b6001600160a01b039093166000908152600760209081526040808320868452825280832085905593825260089052919091209190915550565b6001600160a01b0382166118585760405162461bcd60e51b815260206004820181905260248201527f4552433732313a206d696e7420746f20746865207a65726f20616464726573736044820152606401610565565b6000818152600360205260409020546001600160a01b0316156118bd5760405162461bcd60e51b815260206004820152601c60248201527f4552433732313a20746f6b656e20616c7265616479206d696e746564000000006044820152606401610565565b6118c9600083836112e3565b6001600160a01b03821660009081526004602052604081208054600192906118f2908490611fa1565b909155505060008181526003602052604080822080546001600160a01b0319166001600160a01b03861690811790915590518392907fddf252ad1be2c89b69c2b068fc378daa952ba7f163c4a11628f55a4df523b3ef908290a45050565b6001600160e01b031981168114610cb357600080fd5b60006020828403121561197857600080fd5b813561166b81611950565b60005b8381101561199e578181015183820152602001611986565b50506000910152565b600081518084526119bf816020860160208601611983565b601f01601f19169290920160200192915050565b60208152600061166b60208301846119a7565b6000602082840312156119f857600080fd5b5035919050565b80356001600160a01b03811681146107b657600080fd5b60008060408385031215611a2957600080fd5b611a32836119ff565b946020939093013593505050565b600080600060608486031215611a5557600080fd5b611a5e846119ff565b9250611a6c602085016119ff565b9150604084013590509250925092565b600060208284031215611a8e57600080fd5b61166b826119ff565b634e487b7160e01b600052604160045260246000fd5b600067ffffffffffffffff80841115611ac857611ac8611a97565b604051601f8501601f19908116603f01168101908282118183101715611af057611af0611a97565b81604052809350858152868686011115611b0957600080fd5b858560208301376000602087830101525050509392505050565b600060208284031215611b3557600080fd5b813567ffffffffffffffff811115611b4c57600080fd5b8201601f81018413611b5d57600080fd5b610c3584823560208401611aad565b60008060408385031215611b7f57600080fd5b611b88836119ff565b915060208301358015158114611b9d57600080fd5b809150509250929050565b60008060008060808587031215611bbe57600080fd5b611bc7856119ff565b9350611bd5602086016119ff565b925060408501359150606085013567ffffffffffffffff811115611bf857600080fd5b8501601f81018713611c0957600080fd5b611c1887823560208401611aad565b91505092959194509250565b60008060408385031215611c3757600080fd5b611c40836119ff565b9150611c4e602084016119ff565b90509250929050565b600181811c90821680611c6b57607f821691505b602082108103611c8b57634e487b7160e01b600052602260045260246000fd5b50919050565b6020808252602e908201527f4552433732313a2063616c6c6572206973206e6f7420746f6b656e206f776e6560408201526d1c881b9bdc88185c1c1c9bdd995960921b606082015260800190565b634e487b7160e01b600052603260045260246000fd5b601f82111561060657600081815260208120601f850160051c81016020861015611d1c5750805b601f850160051c820191505b81811015611d3b57828155600101611d28565b505050505050565b815167ffffffffffffffff811115611d5d57611d5d611a97565b611d7181611d6b8454611c57565b84611cf5565b602080601f831160018114611da65760008415611d8e5750858301515b600019600386901b1c1916600185901b178555611d3b565b600085815260208120601f198616915b82811015611dd557888601518255948401946001909101908401611db6565b5085821015611df35787850151600019600388901b60f8161c191681555b5050505050600190811b01905550565b6001600160a01b0384168152606060208201819052600090611e27908301856119a7565b8281036040840152611e3981856119a7565b9695505050505050565b60006bffffffffffffffffffffffff19808760601b1683528551611e6e816014860160208a01611983565b8084019050818660601b16601482015284519150611e93826028830160208801611983565b016028019695505050505050565b634e487b7160e01b600052601260045260246000fd5b600082611ec657611ec6611ea1565b500690565b60008651611edd818460208b01611983565b8083019050602f60f81b8082528751611efd816001850160208c01611983565b60019201918201528551611f18816002840160208a01611983565b808201915050605f60f81b8060028301528551611f3c816003850160208a01611983565b60039201918201528351611f57816004840160208801611983565b64173539b7b760d91b60049290910191820152600901979650505050505050565b634e487b7160e01b600052601160045260246000fd5b8181038181111561043257610432611f78565b8082018082111561043257610432611f78565b600060018201611fc657611fc6611f78565b5060010190565b600082611fdc57611fdc611ea1565b500490565b60208082526032908201527f4552433732313a207472616e7366657220746f206e6f6e20455243373231526560408201527131b2b4bb32b91034b6b83632b6b2b73a32b960711b606082015260800190565b6001600160a01b0385811682528416602082015260408101839052608060608201819052600090611e39908301846119a7565b60006020828403121561207857600080fd5b815161166b81611950565b808202811582820484141761043257610432611f78565b6000816120a9576120a9611f78565b506000190190565b634e487b7160e01b600052603160045260246000fdfea2646970667358221220dd02fd5046c2c91e5b7465700cd9c64d69a7778df6845d086d9fef744da0df4664736f6c63430008140033",
  "devdoc": {
    "events": {
      "Approval(address,address,uint256)": {
        "details": "Emitted when `owner` enables `approved` to manage the `tokenId` token."
      },
      "ApprovalForAll(address,address,bool)": {
        "details": "Emitted when `owner` enables or disables (`approved`) `operator` to manage all of its assets."
      },
      "Transfer(address,address,uint256)": {
        "details": "Emitted when `tokenId` token is transferred from `from` to `to`."
      }
    },
    "kind": "dev",
    "methods": {
      "approve(address,uint256)": {
        "details": "See {IERC721-approve}."
      },
      "balanceOf(address)": {
        "details": "See {IERC721-balanceOf}."
      },
      "draw(address)": {
        "details": "Draws a fortune stick (mint new NFT) for the specified address.",
        "params": {
          "_to": "The address to receive the fortune stick."
        },
        "returns": {
          "_tokenId": "The ID of the fortune stick token."
        }
      },
      "getApproved(uint256)": {
        "details": "See {IERC721-getApproved}."
      },
      "isApprovedForAll(address,address)": {
        "details": "See {IERC721-isApprovedForAll}."
      },
      "name()": {
        "details": "See {IERC721Metadata-name}."
      },
      "owner()": {
        "details": "Returns the address of the current owner."
      },
      "ownerOf(uint256)": {
        "details": "See {IERC721-ownerOf}."
      },
      "renounceOwnership()": {
        "details": "Leaves the contract without owner. It will not be possible to call `onlyOwner` functions anymore. Can only be called by the current owner. NOTE: Renouncing ownership will leave the contract without an owner, thereby removing any functionality that is only available to the owner."
      },
      "safeTransferFrom(address,address,uint256)": {
        "details": "See {IERC721-safeTransferFrom}."
      },
      "safeTransferFrom(address,address,uint256,bytes)": {
        "details": "See {IERC721-safeTransferFrom}."
      },
      "setApprovalForAll(address,bool)": {
        "details": "See {IERC721-setApprovalForAll}."
      },
      "supportsInterface(bytes4)": {
        "details": "See {IERC165-supportsInterface}."
      },
      "symbol()": {
        "details": "See {IERC721Metadata-symbol}."
      },
      "tokenByIndex(uint256)": {
        "details": "See {IERC721Enumerable-tokenByIndex}."
      },
      "tokenOfOwnerByIndex(address,uint256)": {
        "details": "See {IERC721Enumerable-tokenOfOwnerByIndex}."
      },
      "totalSupply()": {
        "details": "See {IERC721Enumerable-totalSupply}."
      },
      "transferFrom(address,address,uint256)": {
        "details": "See {IERC721-transferFrom}."
      },
      "transferOwnership(address)": {
        "details": "Transfers ownership of the contract to a new account (`newOwner`). Can only be called by the current owner."
      }
    },
    "version": 1
  },
  "userdoc": {
    "kind": "user",
    "methods": {},
    "version": 1
  },
  "storageLayout": {
    "storage": [
      {
        "astId": 575,
        "contract": "contracts/FortuneStick.sol:FortuneStick",
        "label": "_owner",
        "offset": 0,
        "slot": "0",
        "type": "t_address"
      },
      {
        "astId": 809,
        "contract": "contracts/FortuneStick.sol:FortuneStick",
        "label": "_name",
        "offset": 0,
        "slot": "1",
        "type": "t_string_storage"
      },
      {
        "astId": 811,
        "contract": "contracts/FortuneStick.sol:FortuneStick",
        "label": "_symbol",
        "offset": 0,
        "slot": "2",
        "type": "t_string_storage"
      },
      {
        "astId": 815,
        "contract": "contracts/FortuneStick.sol:FortuneStick",
        "label": "_owners",
        "offset": 0,
        "slot": "3",
        "type": "t_mapping(t_uint256,t_address)"
      },
      {
        "astId": 819,
        "contract": "contracts/FortuneStick.sol:FortuneStick",
        "label": "_balances",
        "offset": 0,
        "slot": "4",
        "type": "t_mapping(t_address,t_uint256)"
      },
      {
        "astId": 823,
        "contract": "contracts/FortuneStick.sol:FortuneStick",
        "label": "_tokenApprovals",
        "offset": 0,
        "slot": "5",
        "type": "t_mapping(t_uint256,t_address)"
      },
      {
        "astId": 829,
        "contract": "contracts/FortuneStick.sol:FortuneStick",
        "label": "_operatorApprovals",
        "offset": 0,
        "slot": "6",
        "type": "t_mapping(t_address,t_mapping(t_address,t_bool))"
      },
      {
        "astId": 1799,
        "contract": "contracts/FortuneStick.sol:FortuneStick",
        "label": "_ownedTokens",
        "offset": 0,
        "slot": "7",
        "type": "t_mapping(t_address,t_mapping(t_uint256,t_uint256))"
      },
      {
        "astId": 1803,
        "contract": "contracts/FortuneStick.sol:FortuneStick",
        "label": "_ownedTokensIndex",
        "offset": 0,
        "slot": "8",
        "type": "t_mapping(t_uint256,t_uint256)"
      },
      {
        "astId": 1806,
        "contract": "contracts/FortuneStick.sol:FortuneStick",
        "label": "_allTokens",
        "offset": 0,
        "slot": "9",
        "type": "t_array(t_uint256)dyn_storage"
      },
      {
        "astId": 1810,
        "contract": "contracts/FortuneStick.sol:FortuneStick",
        "label": "_allTokensIndex",
        "offset": 0,
        "slot": "10",
        "type": "t_mapping(t_uint256,t_uint256)"
      },
      {
        "astId": 3468,
        "contract": "contracts/FortuneStick.sol:FortuneStick",
        "label": "baseURI",
        "offset": 0,
        "slot": "11",
        "type": "t_string_storage"
      },
      {
        "astId": 3472,
        "contract": "contracts/FortuneStick.sol:FortuneStick",
        "label": "mintTime",
        "offset": 0,
        "slot": "12",
        "type": "t_mapping(t_uint256,t_uint256)"
      },
      {
        "astId": 3476,
        "contract": "contracts/FortuneStick.sol:FortuneStick",
        "label": "tokenMinter",
        "offset": 0,
        "slot": "13",
        "type": "t_mapping(t_uint256,t_address)"
      }
    ],
    "types": {
      "t_address": {
        "encoding": "inplace",
        "label": "address",
        "numberOfBytes": "20"
      },
      "t_array(t_uint256)dyn_storage": {
        "base": "t_uint256",
        "encoding": "dynamic_array",
        "label": "uint256[]",
        "numberOfBytes": "32"
      },
      "t_bool": {
        "encoding": "inplace",
        "label": "bool",
        "numberOfBytes": "1"
      },
      "t_mapping(t_address,t_bool)": {
        "encoding": "mapping",
        "key": "t_address",
        "label": "mapping(address => bool)",
        "numberOfBytes": "32",
        "value": "t_bool"
      },
      "t_mapping(t_address,t_mapping(t_address,t_bool))": {
        "encoding": "mapping",
        "key": "t_address",
        "label": "mapping(address => mapping(address => bool))",
        "numberOfBytes": "32",
        "value": "t_mapping(t_address,t_bool)"
      },
      "t_mapping(t_address,t_mapping(t_uint256,t_uint256))": {
        "encoding": "mapping",
        "key": "t_address",
        "label": "mapping(address => mapping(uint256 => uint256))",
        "numberOfBytes": "32",
        "value": "t_mapping(t_uint256,t_uint256)"
      },
      "t_mapping(t_address,t_uint256)": {
        "encoding": "mapping",
        "key": "t_address",
        "label": "mapping(address => uint256)",
        "numberOfBytes": "32",
        "value": "t_uint256"
      },
      "t_mapping(t_uint256,t_address)": {
        "encoding": "mapping",
        "key": "t_uint256",
        "label": "mapping(uint256 => address)",
        "numberOfBytes": "32",
        "value": "t_address"
      },
      "t_mapping(t_uint256,t_uint256)": {
        "encoding": "mapping",
        "key": "t_uint256",
        "label": "mapping(uint256 => uint256)",
        "numberOfBytes": "32",
        "value": "t_uint256"
      },
      "t_string_storage": {
        "encoding": "bytes",
        "label": "string",
        "numberOfBytes": "32"
      },
      "t_uint256": {
        "encoding": "inplace",
        "label": "uint256",
        "numberOfBytes": "32"
      }
    }
  }
}