{
  "address": "0x422A6F6A46A8357374cefAf3c1eE6D045197ABA9",
  "abi": [
    {
      "inputs": [
        {
          "internalType": "uint256",
          "name": "_startTime",
          "type": "uint256"
        },
        {
          "internalType": "uint256",
          "name": "_decreaseCoefficient",
          "type": "uint256"
        },
        {
          "internalType": "uint256",
          "name": "_totalSupplyByDay",
          "type": "uint256"
        },
        {
          "internalType": "uint256",
          "name": "_mintPrice",
          "type": "uint256"
        }
      ],
      "stateMutability": "nonpayable",
      "type": "constructor"
    },
    {
      "anonymous": false,
      "inputs": [
        {
          "indexed": false,
          "internalType": "address",
          "name": "_sender",
          "type": "address"
        },
        {
          "indexed": false,
          "internalType": "uint256",
          "name": "_tokenId",
          "type": "uint256"
        },
        {
          "indexed": false,
          "internalType": "uint256",
          "name": "_stickNo",
          "type": "uint256"
        }
      ],
      "name": "DrawFortune",
      "type": "event"
    },
    {
      "anonymous": false,
      "inputs": [
        {
          "indexed": false,
          "internalType": "address",
          "name": "_sender",
          "type": "address"
        },
        {
          "indexed": false,
          "internalType": "address",
          "name": "_meritCoin",
          "type": "address"
        }
      ],
      "name": "InitFortuneStick",
      "type": "event"
    },
    {
      "anonymous": false,
      "inputs": [
        {
          "indexed": false,
          "internalType": "address",
          "name": "_sender",
          "type": "address"
        },
        {
          "indexed": false,
          "internalType": "address",
          "name": "_meritCoin",
          "type": "address"
        }
      ],
      "name": "InitMeritCoin",
      "type": "event"
    },
    {
      "anonymous": false,
      "inputs": [
        {
          "indexed": false,
          "internalType": "uint8",
          "name": "version",
          "type": "uint8"
        }
      ],
      "name": "Initialized",
      "type": "event"
    },
    {
      "anonymous": false,
      "inputs": [
        {
          "indexed": false,
          "internalType": "address",
          "name": "_sender",
          "type": "address"
        },
        {
          "indexed": false,
          "internalType": "uint256",
          "name": "_mintAmount",
          "type": "uint256"
        }
      ],
      "name": "OfferingIncense",
      "type": "event"
    },
    {
      "anonymous": false,
      "inputs": [
        {
          "indexed": true,
          "internalType": "address",
          "name": "previousOwner",
          "type": "address"
        },
        {
          "indexed": true,
          "internalType": "address",
          "name": "newOwner",
          "type": "address"
        }
      ],
      "name": "OwnershipTransferred",
      "type": "event"
    },
    {
      "anonymous": false,
      "inputs": [
        {
          "indexed": false,
          "internalType": "address",
          "name": "_sender",
          "type": "address"
        },
        {
          "indexed": false,
          "internalType": "uint256",
          "name": "_old",
          "type": "uint256"
        },
        {
          "indexed": false,
          "internalType": "uint256",
          "name": "_new",
          "type": "uint256"
        }
      ],
      "name": "SetDecreaseCoefficient",
      "type": "event"
    },
    {
      "anonymous": false,
      "inputs": [
        {
          "indexed": false,
          "internalType": "address",
          "name": "_sender",
          "type": "address"
        },
        {
          "indexed": false,
          "internalType": "uint256",
          "name": "_old",
          "type": "uint256"
        },
        {
          "indexed": false,
          "internalType": "uint256",
          "name": "_new",
          "type": "uint256"
        }
      ],
      "name": "SetMintPrice",
      "type": "event"
    },
    {
      "anonymous": false,
      "inputs": [
        {
          "indexed": false,
          "internalType": "address",
          "name": "_sender",
          "type": "address"
        },
        {
          "indexed": false,
          "internalType": "uint256",
          "name": "_old",
          "type": "uint256"
        },
        {
          "indexed": false,
          "internalType": "uint256",
          "name": "_new",
          "type": "uint256"
        }
      ],
      "name": "SetTotalSupplyByDay",
      "type": "event"
    },
    {
      "anonymous": false,
      "inputs": [
        {
          "indexed": false,
          "internalType": "address",
          "name": "_sender",
          "type": "address"
        },
        {
          "indexed": false,
          "internalType": "uint256",
          "name": "_days",
          "type": "uint256"
        },
        {
          "indexed": false,
          "internalType": "uint256",
          "name": "_timestamp",
          "type": "uint256"
        }
      ],
      "name": "UpdateSupplyByDay",
      "type": "event"
    },
    {
      "anonymous": false,
      "inputs": [
        {
          "indexed": false,
          "internalType": "address",
          "name": "_sender",
          "type": "address"
        },
        {
          "indexed": false,
          "internalType": "address",
          "name": "_receiver",
          "type": "address"
        },
        {
          "indexed": false,
          "internalType": "uint256",
          "name": "_amount",
          "type": "uint256"
        }
      ],
      "name": "WithdrawETH",
      "type": "event"
    },
    {
      "inputs": [],
      "name": "decreaseCoefficient",
      "outputs": [
        {
          "internalType": "uint256",
          "name": "",
          "type": "uint256"
        }
      ],
      "stateMutability": "view",
      "type": "function"
    },
    {
      "inputs": [],
      "name": "drawFortune",
      "outputs": [],
      "stateMutability": "nonpayable",
      "type": "function"
    },
    {
      "inputs": [],
      "name": "firstMintByDay",
      "outputs": [
        {
          "internalType": "uint256",
          "name": "",
          "type": "uint256"
        }
      ],
      "stateMutability": "view",
      "type": "function"
    },
    {
      "inputs": [],
      "name": "fortuneStick",
      "outputs": [
        {
          "internalType": "address",
          "name": "",
          "type": "address"
        }
      ],
      "stateMutability": "view",
      "type": "function"
    },
    {
      "inputs": [],
      "name": "fourthMintByDay",
      "outputs": [
        {
          "internalType": "uint256",
          "name": "",
          "type": "uint256"
        }
      ],
      "stateMutability": "view",
      "type": "function"
    },
    {
      "inputs": [],
      "name": "getDays",
      "outputs": [
        {
          "internalType": "uint256",
          "name": "",
          "type": "uint256"
        }
      ],
      "stateMutability": "view",
      "type": "function"
    },
    {
      "inputs": [
        {
          "internalType": "address",
          "name": "_user",
          "type": "address"
        }
      ],
      "name": "getOfferingIncenseFrequency",
      "outputs": [
        {
          "internalType": "uint256",
          "name": "",
          "type": "uint256"
        }
      ],
      "stateMutability": "view",
      "type": "function"
    },
    {
      "inputs": [
        {
          "internalType": "address",
          "name": "_fortuneStick",
          "type": "address"
        }
      ],
      "name": "initFortuneStick",
      "outputs": [],
      "stateMutability": "nonpayable",
      "type": "function"
    },
    {
      "inputs": [
        {
          "internalType": "address",
          "name": "_meritCoin",
          "type": "address"
        }
      ],
      "name": "initMeritCoin",
      "outputs": [],
      "stateMutability": "nonpayable",
      "type": "function"
    },
    {
      "inputs": [
        {
          "internalType": "uint256",
          "name": "_startTime",
          "type": "uint256"
        },
        {
          "internalType": "uint256",
          "name": "_decreaseCoefficient",
          "type": "uint256"
        },
        {
          "internalType": "uint256",
          "name": "_totalSupplyByDay",
          "type": "uint256"
        },
        {
          "internalType": "uint256",
          "name": "_mintPrice",
          "type": "uint256"
        }
      ],
      "name": "initialize",
      "outputs": [],
      "stateMutability": "nonpayable",
      "type": "function"
    },
    {
      "inputs": [],
      "name": "lastDecrement",
      "outputs": [
        {
          "internalType": "uint256",
          "name": "",
          "type": "uint256"
        }
      ],
      "stateMutability": "view",
      "type": "function"
    },
    {
      "inputs": [],
      "name": "meritCoin",
      "outputs": [
        {
          "internalType": "address",
          "name": "",
          "type": "address"
        }
      ],
      "stateMutability": "view",
      "type": "function"
    },
    {
      "inputs": [
        {
          "internalType": "uint256",
          "name": "",
          "type": "uint256"
        }
      ],
      "name": "mintNum",
      "outputs": [
        {
          "internalType": "uint256",
          "name": "",
          "type": "uint256"
        }
      ],
      "stateMutability": "view",
      "type": "function"
    },
    {
      "inputs": [],
      "name": "mintPrice",
      "outputs": [
        {
          "internalType": "uint256",
          "name": "",
          "type": "uint256"
        }
      ],
      "stateMutability": "view",
      "type": "function"
    },
    {
      "inputs": [],
      "name": "offeringIncense",
      "outputs": [],
      "stateMutability": "payable",
      "type": "function"
    },
    {
      "inputs": [],
      "name": "owner",
      "outputs": [
        {
          "internalType": "address",
          "name": "",
          "type": "address"
        }
      ],
      "stateMutability": "view",
      "type": "function"
    },
    {
      "inputs": [],
      "name": "remainingSupply",
      "outputs": [
        {
          "internalType": "uint256",
          "name": "",
          "type": "uint256"
        }
      ],
      "stateMutability": "view",
      "type": "function"
    },
    {
      "inputs": [],
      "name": "renounceOwnership",
      "outputs": [],
      "stateMutability": "nonpayable",
      "type": "function"
    },
    {
      "inputs": [],
      "name": "secondMintByDay",
      "outputs": [
        {
          "internalType": "uint256",
          "name": "",
          "type": "uint256"
        }
      ],
      "stateMutability": "view",
      "type": "function"
    },
    {
      "inputs": [
        {
          "internalType": "uint256",
          "name": "_new",
          "type": "uint256"
        }
      ],
      "name": "setDecreaseCoefficient",
      "outputs": [],
      "stateMutability": "nonpayable",
      "type": "function"
    },
    {
      "inputs": [
        {
          "internalType": "uint256",
          "name": "_new",
          "type": "uint256"
        }
      ],
      "name": "setMintPrice",
      "outputs": [],
      "stateMutability": "nonpayable",
      "type": "function"
    },
    {
      "inputs": [
        {
          "internalType": "uint256",
          "name": "_new",
          "type": "uint256"
        }
      ],
      "name": "setTotalSupplyByDay",
      "outputs": [],
      "stateMutability": "nonpayable",
      "type": "function"
    },
    {
      "inputs": [],
      "name": "startTime",
      "outputs": [
        {
          "internalType": "uint256",
          "name": "",
          "type": "uint256"
        }
      ],
      "stateMutability": "view",
      "type": "function"
    },
    {
      "inputs": [],
      "name": "thirdMintByDay",
      "outputs": [
        {
          "internalType": "uint256",
          "name": "",
          "type": "uint256"
        }
      ],
      "stateMutability": "view",
      "type": "function"
    },
    {
      "inputs": [],
      "name": "totalSupplyByDay",
      "outputs": [
        {
          "internalType": "uint256",
          "name": "",
          "type": "uint256"
        }
      ],
      "stateMutability": "view",
      "type": "function"
    },
    {
      "inputs": [
        {
          "internalType": "address",
          "name": "newOwner",
          "type": "address"
        }
      ],
      "name": "transferOwnership",
      "outputs": [],
      "stateMutability": "nonpayable",
      "type": "function"
    },
    {
      "inputs": [
        {
          "internalType": "uint256",
          "name": "",
          "type": "uint256"
        }
      ],
      "name": "updateSupplyByDay",
      "outputs": [
        {
          "internalType": "bool",
          "name": "",
          "type": "bool"
        }
      ],
      "stateMutability": "view",
      "type": "function"
    },
    {
      "inputs": [
        {
          "internalType": "uint256",
          "name": "",
          "type": "uint256"
        },
        {
          "internalType": "address",
          "name": "",
          "type": "address"
        }
      ],
      "name": "userMintNumByDay",
      "outputs": [
        {
          "internalType": "uint256",
          "name": "",
          "type": "uint256"
        }
      ],
      "stateMutability": "view",
      "type": "function"
    },
    {
      "inputs": [
        {
          "internalType": "address",
          "name": "_to",
          "type": "address"
        }
      ],
      "name": "withdrawETH",
      "outputs": [],
      "stateMutability": "nonpayable",
      "type": "function"
    },
    {
      "stateMutability": "payable",
      "type": "receive"
    }
  ],
  "transactionHash": "0x5ea22561ae1efa132265e09b136575b44e08d3d2f659548d680e82d84bce86e4",
  "args": [
    "1719698400",
    "1044910130000000000",
    "888000000000000000000",
    "88000000000000000000"
  ],
  "numDeployments": 1,
  "solcInputHash": "ec4b812de499f76a0af82790d1b23bdf",
  "bytecode": "0x60806040523480156200001157600080fd5b5060405162001993380380620019938339810160408190526200003491620002a2565b62000042848484846200004c565b50505050620002d9565b600054610100900460ff16158080156200006d5750600054600160ff909116105b80620000895750303b15801562000089575060005460ff166001145b620000f25760405162461bcd60e51b815260206004820152602e60248201527f496e697469616c697a61626c653a20636f6e747261637420697320616c72656160448201526d191e481a5b9a5d1a585b1a5e995960921b60648201526084015b60405180910390fd5b6000805460ff19166001179055801562000116576000805461ff0019166101001790555b6200012062000187565b606785905560698490556068839055606a829055606b839055801562000180576000805461ff0019169055604051600181527f7f26b83ff96e1f2b6a682f133852f6798a09c465da95921460cefb38474024989060200160405180910390a15b5050505050565b600054610100900460ff16620001e35760405162461bcd60e51b815260206004820152602b60248201526000805160206200197383398151915260448201526a6e697469616c697a696e6760a81b6064820152608401620000e9565b620001ed620001ef565b565b600054610100900460ff166200024b5760405162461bcd60e51b815260206004820152602b60248201526000805160206200197383398151915260448201526a6e697469616c697a696e6760a81b6064820152608401620000e9565b620001ed33603380546001600160a01b038381166001600160a01b0319831681179093556040519116919082907f8be0079c531659141344cd1fd0a4f28419497f9722a3daafe3b4186f6b6457e090600090a35050565b60008060008060808587031215620002b957600080fd5b505082516020840151604085015160609095015191969095509092509050565b61168a80620002e96000396000f3fe6080604052600436106101c55760003560e01c80637db79418116100f7578063b7dc47af11610095578063da0239a611610064578063da0239a6146104e2578063f2fde38b146104f8578063f4a0a52814610518578063fcdec5341461053857600080fd5b8063b7dc47af14610477578063c9a6bd511461048d578063d00ebaeb146104a2578063d22f1489146104c257600080fd5b80638e3d7ae7116100d15780638e3d7ae7146104235780638f7a0c4914610438578063a1545ef51461044d578063b76d9db91461046257600080fd5b80637db79418146103da5780638ccc6e16146103f05780638da5cb5b1461040557600080fd5b8063619f6565116101645780636817c76c1161013e5780636817c76c14610379578063690d83201461038f578063715018a6146103af57806378e97925146103c457600080fd5b8063619f6565146102c95780636324364314610309578063654020d71461034157600080fd5b80631426df7b116101a05780631426df7b14610246578063223d534b1461025c5780632ca7512d1461028957806360a2da44146102a957600080fd5b80622fc804146101d157806308becc97146101f35780630c2823191461021357600080fd5b366101cc57005b600080fd5b3480156101dd57600080fd5b506101f16101ec36600461135f565b610540565b005b3480156101ff57600080fd5b506101f161020e36600461135f565b610612565b34801561021f57600080fd5b5061023361022e36600461135f565b6106db565b6040519081526020015b60405180910390f35b34801561025257600080fd5b5061023360695481565b34801561026857600080fd5b5061023361027736600461137c565b606d6020526000908152604090205481565b34801561029557600080fd5b506101f16102a436600461137c565b61071e565b3480156102b557600080fd5b506101f16102c4366004611395565b61076e565b3480156102d557600080fd5b506102f96102e436600461137c565b606e6020526000908152604090205460ff1681565b604051901515815260200161023d565b34801561031557600080fd5b506102336103243660046113c7565b606f60209081526000928352604080842090915290825290205481565b34801561034d57600080fd5b50606654610361906001600160a01b031681565b6040516001600160a01b03909116815260200161023d565b34801561038557600080fd5b50610233606a5481565b34801561039b57600080fd5b506101f16103aa36600461135f565b61089c565b3480156103bb57600080fd5b506101f1610923565b3480156103d057600080fd5b5061023360675481565b3480156103e657600080fd5b50610233606c5481565b3480156103fc57600080fd5b50610233601e81565b34801561041157600080fd5b506033546001600160a01b0316610361565b34801561042f57600080fd5b506101f1610937565b34801561044457600080fd5b50610233604281565b34801561045957600080fd5b50610233610cc0565b34801561046e57600080fd5b50610233602481565b34801561048357600080fd5b5061023360685481565b34801561049957600080fd5b50610233605881565b3480156104ae57600080fd5b50606554610361906001600160a01b031681565b3480156104ce57600080fd5b506101f16104dd36600461137c565b610ce3565b3480156104ee57600080fd5b50610233606b5481565b34801561050457600080fd5b506101f161051336600461135f565b610d27565b34801561052457600080fd5b506101f161053336600461137c565b610da0565b6101f1610de4565b610548611098565b6065546001600160a01b0316156105b65760405162461bcd60e51b815260206004820152602760248201527f4379626572466f7274756e65476f643a206d65726974436f696e20686173206260448201526619595b881cd95d60ca1b60648201526084015b60405180910390fd5b606580546001600160a01b0319166001600160a01b0383169081179091556040805133815260208101929092527f87a0cb2691d97e4b82f03339ec77464fa872916b6ec117212f18469c0aa79b9091015b60405180910390a150565b61061a611098565b6066546001600160a01b0316156106865760405162461bcd60e51b815260206004820152602a60248201527f4379626572466f7274756e65476f643a20666f7274756e65537469636b2068616044820152691cc81899595b881cd95d60b21b60648201526084016105ad565b606680546001600160a01b0319166001600160a01b0383169081179091556040805133815260208101929092527faac60737ab2db5909f0c752457d0575d6e7531fd5afa20d0d824dd11c735b32f9101610607565b6000806106e6610cc0565b6000818152606f602090815260408083206001600160a01b038816845290915290205490915061071790600361140d565b9392505050565b610726611098565b60688054908290556040517f7d04a0355efa5ef2f43cad750aa6ac7f24661cfe8fc9b8594c91e03aad14688d9061076290339084908690611420565b60405180910390a15050565b600054610100900460ff161580801561078e5750600054600160ff909116105b806107a85750303b1580156107a8575060005460ff166001145b61080b5760405162461bcd60e51b815260206004820152602e60248201527f496e697469616c697a61626c653a20636f6e747261637420697320616c72656160448201526d191e481a5b9a5d1a585b1a5e995960921b60648201526084016105ad565b6000805460ff19166001179055801561082e576000805461ff0019166101001790555b6108366110f2565b606785905560698490556068839055606a829055606b8390558015610895576000805461ff0019169055604051600181527f7f26b83ff96e1f2b6a682f133852f6798a09c465da95921460cefb38474024989060200160405180910390a15b5050505050565b6108a4611098565b60405147906001600160a01b0383169082156108fc029083906000818181858888f193505050501580156108dc573d6000803e3d6000fd5b50604080513381526001600160a01b03841660208201529081018290527f6b1f4ce962fec27598edceab6195c77516c3df32025eaf0c38d0d4009ac3bd4890606001610762565b61092b611098565b6109356000611121565b565b6065546040805163313ce56760e01b815290516000926001600160a01b03169163313ce5679160048083019260209291908290030181865afa158015610981573d6000803e3d6000fd5b505050506040513d601f19601f820116820180604052508101906109a59190611441565b60ff16905060006109b782600a611548565b6109c2906008611554565b90506109cf82600a611548565b6109da906008611554565b606554604051636eb1769f60e11b81523360048201523060248201526001600160a01b039091169063dd62ed3e90604401602060405180830381865afa158015610a28573d6000803e3d6000fd5b505050506040513d601f19601f82011682018060405250810190610a4c919061156b565b11610abf5760405162461bcd60e51b815260206004820152603c60248201527f4379626572466f7274756e65476f643a2052657175697265732038204d65726960448201527f7420436f696e20746f206472617720666f7274756e6520737469636b0000000060648201526084016105ad565b6065546040516323b872dd60e01b8152336004820152306024820152604481018390526001600160a01b03909116906323b872dd906064016020604051808303816000875af1158015610b16573d6000803e3d6000fd5b505050506040513d601f19601f82011682018060405250810190610b3a9190611584565b50606554604051630852cd8d60e31b8152600481018390526001600160a01b03909116906342966c6890602401600060405180830381600087803b158015610b8157600080fd5b505af1158015610b95573d6000803e3d6000fd5b50506066546040516311e966dd60e21b8152336004820152600093506001600160a01b0390911691506347a59b74906024016020604051808303816000875af1158015610be6573d6000803e3d6000fd5b505050506040513d601f19601f82011682018060405250810190610c0a919061156b565b606654604051630ef95d5d60e31b8152600481018390529192506000916001600160a01b03909116906377caeae8906024016040805180830381865afa158015610c58573d6000803e3d6000fd5b505050506040513d601f19601f82011682018060405250810190610c7c91906115a6565b9150507f5a5b55359c22bf9271a592bcb6f01638e6a77583cb45fc2679f32324750ec22c338383604051610cb293929190611420565b60405180910390a150505050565b60006201518060675442610cd4919061140d565b610cde91906115d4565b905090565b610ceb611098565b60698054908290556040517fd642e463339b60cb1692955dd9977759fd4d0e5026f30d0b473578e8767397d29061076290339084908690611420565b610d2f611098565b6001600160a01b038116610d945760405162461bcd60e51b815260206004820152602660248201527f4f776e61626c653a206e6577206f776e657220697320746865207a65726f206160448201526564647265737360d01b60648201526084016105ad565b610d9d81611121565b50565b610da8611098565b606a8054908290556040517f55cc83342b4c144a74960fdf0dfe1a7af4cbb77aaccb471b088d5fe0bdad1d4c9061076290339084908690611420565b606a54341015610e4e5760405162461bcd60e51b815260206004820152602f60248201527f4379626572466f7274756e65476f643a207061796d656e7420616d6f756e742060448201526e1a5cc81a5b9cdd59999a58da595b9d608a1b60648201526084016105ad565b6000610e58610cc0565b6000818152606f60209081526040808320338452909152902054909150600311610eda5760405162461bcd60e51b815260206004820152602d60248201527f4379626572466f7274756e65476f643a204d696e7420757020746f207468726560448201526c652074696d657320612064617960981b60648201526084016105ad565b6000818152606e602052604090205460ff16610f4c576000818152606e602052604090819020805460ff19166001179055606854606b55517fbea77d7032571316759bda46ee1544473a0b842e1ad3b20aec6c09b5c588b88990610f4390339084904290611420565b60405180910390a15b6000610f56611173565b905060008111610fce5760405162461bcd60e51b815260206004820152603760248201527f4379626572466f7274756e65476f643a20546f6461792773204d45524954206860448201527f6173206265656e206469737472696275746564206f757400000000000000000060648201526084016105ad565b6000828152606f602090815260408083203384529091528120805460019290610ff89084906115f6565b90915550506065546040516340c10f1960e01b8152336004820152602481018390526001600160a01b03909116906340c10f1990604401600060405180830381600087803b15801561104957600080fd5b505af115801561105d573d6000803e3d6000fd5b505060408051338152602081018590527f9dff41da70aedfc40cf8d5e57e66ae3053b5477933045f08db4b19e24918bec99350019050610762565b6033546001600160a01b031633146109355760405162461bcd60e51b815260206004820181905260248201527f4f776e61626c653a2063616c6c6572206973206e6f7420746865206f776e657260448201526064016105ad565b600054610100900460ff166111195760405162461bcd60e51b81526004016105ad90611609565b6109356112ad565b603380546001600160a01b038381166001600160a01b0319831681179093556040519116919082907f8be0079c531659141344cd1fd0a4f28419497f9722a3daafe3b4186f6b6457e090600090a35050565b6000606b546000036111855750600090565b600061118f610cc0565b6000818152606d6020908152604080832054606554825163313ce56760e01b8152925195965090946001600160a01b039091169263313ce56792600480820193918290030181865afa1580156111e9573d6000803e3d6000fd5b505050506040513d601f19601f8201168201806040525081019061120d9190611441565b60ff169050600482106112445760695461122882600a611548565b606c546112359190611554565b61123f91906115d4565b61124e565b61124e81836112dd565b9350606b54841061126957606b805460009091559350611281565b83606b600082825461127b919061140d565b90915550505b606c84905583156112a7576112978260016115f6565b6000848152606d60205260409020555b50505090565b600054610100900460ff166112d45760405162461bcd60e51b81526004016105ad90611609565b61093533611121565b6000816000036113055760586112f484600a611548565b6112fe9190611554565b9050611344565b8160010361131a5760426112f484600a611548565b8160020361132f5760246112f484600a611548565b8160030361134457601e6112f484600a611548565b92915050565b6001600160a01b0381168114610d9d57600080fd5b60006020828403121561137157600080fd5b81356107178161134a565b60006020828403121561138e57600080fd5b5035919050565b600080600080608085870312156113ab57600080fd5b5050823594602084013594506040840135936060013592509050565b600080604083850312156113da57600080fd5b8235915060208301356113ec8161134a565b809150509250929050565b634e487b7160e01b600052601160045260246000fd5b81810381811115611344576113446113f7565b6001600160a01b039390931683526020830191909152604082015260600190565b60006020828403121561145357600080fd5b815160ff8116811461071757600080fd5b600181815b8085111561149f578160001904821115611485576114856113f7565b8085161561149257918102915b93841c9390800290611469565b509250929050565b6000826114b657506001611344565b816114c357506000611344565b81600181146114d957600281146114e3576114ff565b6001915050611344565b60ff8411156114f4576114f46113f7565b50506001821b611344565b5060208310610133831016604e8410600b8410161715611522575081810a611344565b61152c8383611464565b8060001904821115611540576115406113f7565b029392505050565b600061071783836114a7565b8082028115828204841417611344576113446113f7565b60006020828403121561157d57600080fd5b5051919050565b60006020828403121561159657600080fd5b8151801515811461071757600080fd5b600080604083850312156115b957600080fd5b82516115c48161134a565b6020939093015192949293505050565b6000826115f157634e487b7160e01b600052601260045260246000fd5b500490565b80820180821115611344576113446113f7565b6020808252602b908201527f496e697469616c697a61626c653a20636f6e7472616374206973206e6f74206960408201526a6e697469616c697a696e6760a81b60608201526080019056fea26469706673582212209a05c14452f7ef141e03b2c821faf310b2b596c5c1e817f10995bfce0d20144164736f6c63430008140033496e697469616c697a61626c653a20636f6e7472616374206973206e6f742069",
  "devdoc": {
    "events": {
      "Initialized(uint8)": {
        "details": "Triggered when the contract has been initialized or reinitialized."
      }
    },
    "kind": "dev",
    "methods": {
      "drawFortune()": {
        "details": "Draws a fortune stick for the caller and charges caller 8 Merit Coin. Requirements: - The caller must have approved the contract to spend 8 Merit Coin."
      },
      "getDays()": {
        "details": "Returns the number of days.",
        "returns": {
          "_0": "The number of days as a uint256 value."
        }
      },
      "initFortuneStick(address)": {
        "details": "Initializes the FortuneStick contract address.",
        "params": {
          "_fortuneStick": "The address of the FortuneStick contract. Requirements: - Only the contract owner can call this function."
        }
      },
      "initMeritCoin(address)": {
        "details": "Initializes the MeritCoin contract address.",
        "params": {
          "_meritCoin": "The address of the MeritCoin contract. Requirements: - Only the contract owner can call this function."
        }
      },
      "initialize(uint256,uint256,uint256,uint256)": {
        "details": "Initializes the CyberFortuneGod contract with the specified parameters.",
        "params": {
          "_decreaseCoefficient": "The decrease coefficient for the contract.",
          "_mintPrice": "The mint price for the contract.",
          "_startTime": "The start time for the contract.",
          "_totalSupplyByDay": "The total supply by day for the contract."
        }
      },
      "offeringIncense()": {
        "details": "Performs the action of offering incense, mint MeritCoin for caller"
      },
      "owner()": {
        "details": "Returns the address of the current owner."
      },
      "renounceOwnership()": {
        "details": "Leaves the contract without owner. It will not be possible to call `onlyOwner` functions anymore. Can only be called by the current owner. NOTE: Renouncing ownership will leave the contract without an owner, thereby removing any functionality that is only available to the owner."
      },
      "setDecreaseCoefficient(uint256)": {
        "details": "Sets the decrease coefficient for the MeritCoin gained in `offeringIncense` Only the contract owner can call this function.",
        "params": {
          "_new": "The new value for the decrease coefficient."
        }
      },
      "setMintPrice(uint256)": {
        "details": "Sets the mint price for MeritCoin (in offeringIncense)",
        "params": {
          "_new": "The new mint price to be set. Requirements: - Only the contract owner can call this function."
        }
      },
      "setTotalSupplyByDay(uint256)": {
        "details": "Sets the total supply by day. Can only be called by the contract owner.",
        "params": {
          "_new": "The new total supply value."
        }
      },
      "transferOwnership(address)": {
        "details": "Transfers ownership of the contract to a new account (`newOwner`). Can only be called by the current owner."
      },
      "withdrawETH(address)": {
        "details": "Allows the owner to withdraw ETH from the contract.",
        "params": {
          "_to": "The address to which the ETH will be transferred."
        }
      }
    },
    "version": 1
  },
  "userdoc": {
    "kind": "user",
    "methods": {},
    "version": 1
  },
  "storageLayout": {
    "storage": [
      {
        "astId": 138,
        "contract": "contracts/CyberFortuneGod.sol:CyberFortuneGod",
        "label": "_initialized",
        "offset": 0,
        "slot": "0",
        "type": "t_uint8"
      },
      {
        "astId": 141,
        "contract": "contracts/CyberFortuneGod.sol:CyberFortuneGod",
        "label": "_initializing",
        "offset": 1,
        "slot": "0",
        "type": "t_bool"
      },
      {
        "astId": 566,
        "contract": "contracts/CyberFortuneGod.sol:CyberFortuneGod",
        "label": "__gap",
        "offset": 0,
        "slot": "1",
        "type": "t_array(t_uint256)50_storage"
      },
      {
        "astId": 10,
        "contract": "contracts/CyberFortuneGod.sol:CyberFortuneGod",
        "label": "_owner",
        "offset": 0,
        "slot": "51",
        "type": "t_address"
      },
      {
        "astId": 130,
        "contract": "contracts/CyberFortuneGod.sol:CyberFortuneGod",
        "label": "__gap",
        "offset": 0,
        "slot": "52",
        "type": "t_array(t_uint256)49_storage"
      },
      {
        "astId": 691,
        "contract": "contracts/CyberFortuneGod.sol:CyberFortuneGod",
        "label": "meritCoin",
        "offset": 0,
        "slot": "101",
        "type": "t_address"
      },
      {
        "astId": 693,
        "contract": "contracts/CyberFortuneGod.sol:CyberFortuneGod",
        "label": "fortuneStick",
        "offset": 0,
        "slot": "102",
        "type": "t_address"
      },
      {
        "astId": 695,
        "contract": "contracts/CyberFortuneGod.sol:CyberFortuneGod",
        "label": "startTime",
        "offset": 0,
        "slot": "103",
        "type": "t_uint256"
      },
      {
        "astId": 697,
        "contract": "contracts/CyberFortuneGod.sol:CyberFortuneGod",
        "label": "totalSupplyByDay",
        "offset": 0,
        "slot": "104",
        "type": "t_uint256"
      },
      {
        "astId": 699,
        "contract": "contracts/CyberFortuneGod.sol:CyberFortuneGod",
        "label": "decreaseCoefficient",
        "offset": 0,
        "slot": "105",
        "type": "t_uint256"
      },
      {
        "astId": 701,
        "contract": "contracts/CyberFortuneGod.sol:CyberFortuneGod",
        "label": "mintPrice",
        "offset": 0,
        "slot": "106",
        "type": "t_uint256"
      },
      {
        "astId": 703,
        "contract": "contracts/CyberFortuneGod.sol:CyberFortuneGod",
        "label": "remainingSupply",
        "offset": 0,
        "slot": "107",
        "type": "t_uint256"
      },
      {
        "astId": 705,
        "contract": "contracts/CyberFortuneGod.sol:CyberFortuneGod",
        "label": "lastDecrement",
        "offset": 0,
        "slot": "108",
        "type": "t_uint256"
      },
      {
        "astId": 709,
        "contract": "contracts/CyberFortuneGod.sol:CyberFortuneGod",
        "label": "mintNum",
        "offset": 0,
        "slot": "109",
        "type": "t_mapping(t_uint256,t_uint256)"
      },
      {
        "astId": 713,
        "contract": "contracts/CyberFortuneGod.sol:CyberFortuneGod",
        "label": "updateSupplyByDay",
        "offset": 0,
        "slot": "110",
        "type": "t_mapping(t_uint256,t_bool)"
      },
      {
        "astId": 719,
        "contract": "contracts/CyberFortuneGod.sol:CyberFortuneGod",
        "label": "userMintNumByDay",
        "offset": 0,
        "slot": "111",
        "type": "t_mapping(t_uint256,t_mapping(t_address,t_uint256))"
      }
    ],
    "types": {
      "t_address": {
        "encoding": "inplace",
        "label": "address",
        "numberOfBytes": "20"
      },
      "t_array(t_uint256)49_storage": {
        "base": "t_uint256",
        "encoding": "inplace",
        "label": "uint256[49]",
        "numberOfBytes": "1568"
      },
      "t_array(t_uint256)50_storage": {
        "base": "t_uint256",
        "encoding": "inplace",
        "label": "uint256[50]",
        "numberOfBytes": "1600"
      },
      "t_bool": {
        "encoding": "inplace",
        "label": "bool",
        "numberOfBytes": "1"
      },
      "t_mapping(t_address,t_uint256)": {
        "encoding": "mapping",
        "key": "t_address",
        "label": "mapping(address => uint256)",
        "numberOfBytes": "32",
        "value": "t_uint256"
      },
      "t_mapping(t_uint256,t_bool)": {
        "encoding": "mapping",
        "key": "t_uint256",
        "label": "mapping(uint256 => bool)",
        "numberOfBytes": "32",
        "value": "t_bool"
      },
      "t_mapping(t_uint256,t_mapping(t_address,t_uint256))": {
        "encoding": "mapping",
        "key": "t_uint256",
        "label": "mapping(uint256 => mapping(address => uint256))",
        "numberOfBytes": "32",
        "value": "t_mapping(t_address,t_uint256)"
      },
      "t_mapping(t_uint256,t_uint256)": {
        "encoding": "mapping",
        "key": "t_uint256",
        "label": "mapping(uint256 => uint256)",
        "numberOfBytes": "32",
        "value": "t_uint256"
      },
      "t_uint256": {
        "encoding": "inplace",
        "label": "uint256",
        "numberOfBytes": "32"
      },
      "t_uint8": {
        "encoding": "inplace",
        "label": "uint8",
        "numberOfBytes": "1"
      }
    }
  }
}