{
  "address": "0x0298A1Fc7aFaB1FC01b26Fe8B4cd3257A9D27ad2",
  "abi": [
    {
      "anonymous": false,
      "inputs": [
        {
          "indexed": false,
          "internalType": "uint8",
          "name": "version",
          "type": "uint8"
        }
      ],
      "name": "Initialized",
      "type": "event"
    },
    {
      "anonymous": false,
      "inputs": [
        {
          "indexed": false,
          "internalType": "address",
          "name": "_sender",
          "type": "address"
        },
        {
          "indexed": false,
          "internalType": "uint256",
          "name": "_mintAmount",
          "type": "uint256"
        }
      ],
      "name": "OfferingIncense",
      "type": "event"
    },
    {
      "anonymous": false,
      "inputs": [
        {
          "indexed": true,
          "internalType": "address",
          "name": "previousOwner",
          "type": "address"
        },
        {
          "indexed": true,
          "internalType": "address",
          "name": "newOwner",
          "type": "address"
        }
      ],
      "name": "OwnershipTransferred",
      "type": "event"
    },
    {
      "anonymous": false,
      "inputs": [
        {
          "indexed": false,
          "internalType": "address",
          "name": "_sender",
          "type": "address"
        },
        {
          "indexed": false,
          "internalType": "uint256",
          "name": "_days",
          "type": "uint256"
        },
        {
          "indexed": false,
          "internalType": "uint256",
          "name": "_timestamp",
          "type": "uint256"
        }
      ],
      "name": "UpdateSupplyByDay",
      "type": "event"
    },
    {
      "anonymous": false,
      "inputs": [
        {
          "indexed": false,
          "internalType": "address",
          "name": "_sender",
          "type": "address"
        },
        {
          "indexed": false,
          "internalType": "address",
          "name": "_receiver",
          "type": "address"
        },
        {
          "indexed": false,
          "internalType": "uint256",
          "name": "_amount",
          "type": "uint256"
        }
      ],
      "name": "WithdrawETH",
      "type": "event"
    },
    {
      "inputs": [],
      "name": "firstMintByDay",
      "outputs": [
        {
          "internalType": "uint256",
          "name": "",
          "type": "uint256"
        }
      ],
      "stateMutability": "view",
      "type": "function"
    },
    {
      "inputs": [],
      "name": "getDays",
      "outputs": [
        {
          "internalType": "uint256",
          "name": "",
          "type": "uint256"
        }
      ],
      "stateMutability": "view",
      "type": "function"
    },
    {
      "inputs": [
        {
          "internalType": "uint256",
          "name": "_startTime",
          "type": "uint256"
        },
        {
          "internalType": "uint256",
          "name": "_variationFactor",
          "type": "uint256"
        }
      ],
      "name": "initialize",
      "outputs": [],
      "stateMutability": "nonpayable",
      "type": "function"
    },
    {
      "inputs": [],
      "name": "lastDecrement",
      "outputs": [
        {
          "internalType": "uint256",
          "name": "",
          "type": "uint256"
        }
      ],
      "stateMutability": "view",
      "type": "function"
    },
    {
      "inputs": [],
      "name": "meritCoin",
      "outputs": [
        {
          "internalType": "contract MeritCoin",
          "name": "",
          "type": "address"
        }
      ],
      "stateMutability": "view",
      "type": "function"
    },
    {
      "inputs": [
        {
          "internalType": "uint256",
          "name": "",
          "type": "uint256"
        }
      ],
      "name": "mintNum",
      "outputs": [
        {
          "internalType": "uint256",
          "name": "",
          "type": "uint256"
        }
      ],
      "stateMutability": "view",
      "type": "function"
    },
    {
      "inputs": [],
      "name": "mintPrice",
      "outputs": [
        {
          "internalType": "uint256",
          "name": "",
          "type": "uint256"
        }
      ],
      "stateMutability": "view",
      "type": "function"
    },
    {
      "inputs": [
        {
          "internalType": "uint256",
          "name": "_nonce",
          "type": "uint256"
        }
      ],
      "name": "offeringIncense",
      "outputs": [],
      "stateMutability": "payable",
      "type": "function"
    },
    {
      "inputs": [],
      "name": "owner",
      "outputs": [
        {
          "internalType": "address",
          "name": "",
          "type": "address"
        }
      ],
      "stateMutability": "view",
      "type": "function"
    },
    {
      "inputs": [
        {
          "internalType": "uint256",
          "name": "min",
          "type": "uint256"
        },
        {
          "internalType": "uint256",
          "name": "max",
          "type": "uint256"
        },
        {
          "internalType": "uint256",
          "name": "_nonce",
          "type": "uint256"
        }
      ],
      "name": "random",
      "outputs": [
        {
          "internalType": "uint256",
          "name": "",
          "type": "uint256"
        }
      ],
      "stateMutability": "view",
      "type": "function"
    },
    {
      "inputs": [],
      "name": "remainingSupply",
      "outputs": [
        {
          "internalType": "uint256",
          "name": "",
          "type": "uint256"
        }
      ],
      "stateMutability": "view",
      "type": "function"
    },
    {
      "inputs": [],
      "name": "renounceOwnership",
      "outputs": [],
      "stateMutability": "nonpayable",
      "type": "function"
    },
    {
      "inputs": [],
      "name": "secondMintByDay",
      "outputs": [
        {
          "internalType": "uint256",
          "name": "",
          "type": "uint256"
        }
      ],
      "stateMutability": "view",
      "type": "function"
    },
    {
      "inputs": [],
      "name": "startTime",
      "outputs": [
        {
          "internalType": "uint256",
          "name": "",
          "type": "uint256"
        }
      ],
      "stateMutability": "view",
      "type": "function"
    },
    {
      "inputs": [],
      "name": "thirdMintByDay",
      "outputs": [
        {
          "internalType": "uint256",
          "name": "",
          "type": "uint256"
        }
      ],
      "stateMutability": "view",
      "type": "function"
    },
    {
      "inputs": [],
      "name": "totalSupplyByDay",
      "outputs": [
        {
          "internalType": "uint256",
          "name": "",
          "type": "uint256"
        }
      ],
      "stateMutability": "view",
      "type": "function"
    },
    {
      "inputs": [
        {
          "internalType": "address",
          "name": "newOwner",
          "type": "address"
        }
      ],
      "name": "transferOwnership",
      "outputs": [],
      "stateMutability": "nonpayable",
      "type": "function"
    },
    {
      "inputs": [
        {
          "internalType": "uint256",
          "name": "",
          "type": "uint256"
        }
      ],
      "name": "updateSupplyByDay",
      "outputs": [
        {
          "internalType": "bool",
          "name": "",
          "type": "bool"
        }
      ],
      "stateMutability": "view",
      "type": "function"
    },
    {
      "inputs": [
        {
          "internalType": "uint256",
          "name": "",
          "type": "uint256"
        },
        {
          "internalType": "address",
          "name": "",
          "type": "address"
        }
      ],
      "name": "userMintNumByDay",
      "outputs": [
        {
          "internalType": "uint256",
          "name": "",
          "type": "uint256"
        }
      ],
      "stateMutability": "view",
      "type": "function"
    },
    {
      "inputs": [],
      "name": "variationFactor",
      "outputs": [
        {
          "internalType": "uint256",
          "name": "",
          "type": "uint256"
        }
      ],
      "stateMutability": "view",
      "type": "function"
    },
    {
      "inputs": [
        {
          "internalType": "address",
          "name": "_to",
          "type": "address"
        }
      ],
      "name": "withdrawETH",
      "outputs": [],
      "stateMutability": "nonpayable",
      "type": "function"
    },
    {
      "stateMutability": "payable",
      "type": "receive"
    }
  ],
  "transactionHash": "0xaa87a52a4617ec76c40d22e268dc2353aa3bbf60997901490b88a952c1857991",
  "args": [],
  "numDeployments": 1,
  "solcInputHash": "c55ce98de960b1a70b4cddfe1da6ea24",
  "bytecode": "0x608060405234801561001057600080fd5b50611ea5806100206000396000f3fe608060405260043610620001475760003560e01c80638f7a0c4911620000b9578063c9a6bd511162000078578063c9a6bd511462000374578063d00ebaeb146200038b578063da0239a614620003ad578063e4a3011614620003c5578063ed8941be14620003ea578063f2fde38b146200040157600080fd5b80638f7a0c4914620002fe578063a1545ef51462000315578063b3e6d434146200032d578063b76d9db91462000345578063b7dc47af146200035c57600080fd5b8063715018a61162000106578063715018a6146200025d5780637299054c146200027557806378e97925146200029a5780637db7941814620002b25780638da5cb5b14620002ca57600080fd5b8063223d534b1462000154578063619f656514620001985780636324364314620001dd5780636817c76c1462000219578063690d8320146200023657600080fd5b366200014f57005b600080fd5b3480156200016157600080fd5b50620001856200017336600462000eb2565b606a6020526000908152604090205481565b6040519081526020015b60405180910390f35b348015620001a557600080fd5b50620001cc620001b736600462000eb2565b606b6020526000908152604090205460ff1681565b60405190151581526020016200018f565b348015620001ea57600080fd5b5062000185620001fc36600462000ee4565b606c60209081526000928352604080842090915290825290205481565b3480156200022657600080fd5b506200018566038d7ea4c6800081565b3480156200024357600080fd5b506200025b6200025536600462000f13565b62000426565b005b3480156200026a57600080fd5b506200025b620004b7565b3480156200028257600080fd5b50620001856200029436600462000f38565b620004cf565b348015620002a757600080fd5b506200018560655481565b348015620002bf57600080fd5b506200018560685481565b348015620002d757600080fd5b506033546001600160a01b03165b6040516001600160a01b0390911681526020016200018f565b3480156200030b57600080fd5b5062000185604281565b3480156200032257600080fd5b5062000185620005bd565b3480156200033a57600080fd5b506200018560665481565b3480156200035257600080fd5b5062000185602481565b3480156200036957600080fd5b506200018561037881565b3480156200038157600080fd5b5062000185605881565b3480156200039857600080fd5b50606954620002e5906001600160a01b031681565b348015620003ba57600080fd5b506200018560675481565b348015620003d257600080fd5b506200025b620003e436600462000f65565b620005e4565b6200025b620003fb36600462000eb2565b62000869565b3480156200040e57600080fd5b506200025b6200042036600462000f13565b62000bda565b6200043062000c59565b60405147906001600160a01b0383169082156108fc029083906000818181858888f1935050505015801562000469573d6000803e3d6000fd5b50604080513381526001600160a01b03841660208201529081018290527f6b1f4ce962fec27598edceab6195c77516c3df32025eaf0c38d0d4009ac3bd489060600160405180910390a15050565b620004c162000c59565b620004cd600062000cb5565b565b6000838311620005265760405162461bcd60e51b815260206004820152601c60248201527f6d6178206d7573742062652067726561746572207468616e206d696e0000000060448201526064015b60405180910390fd5b600042443385604051602001620005689493929190938452602084019290925260601b6bffffffffffffffffffffffff19166040830152605482015260740190565b60408051601f1981840301815291905280516020909101209050846200058f818662000f9e565b6200059c90600162000fba565b620005a8908362000fe6565b620005b4919062000fba565b95945050505050565b60006201518060655442620005d3919062000f9e565b620005df919062000ffd565b905090565b600054610100900460ff1615808015620006055750600054600160ff909116105b80620006215750303b15801562000621575060005460ff166001145b620006865760405162461bcd60e51b815260206004820152602e60248201527f496e697469616c697a61626c653a20636f6e747261637420697320616c72656160448201526d191e481a5b9a5d1a585b1a5e995960921b60648201526084016200051d565b6000805460ff191660011790558015620006aa576000805461ff0019166101001790555b620006b462000d07565b606583905560668290556103786067556040513090620006d49062000ea4565b6001600160a01b039091168152602001604051809103906000f08015801562000701573d6000803e3d6000fd5b50606980546001600160a01b0319166001600160a01b039290921691821790556040805163313ce56760e01b815290516000929163313ce5679160048083019260209291908290030181865afa15801562000760573d6000803e3d6000fd5b505050506040513d601f19601f8201168201806040525081019062000786919062001014565b60695460ff9190911691506001600160a01b03166340c10f1933620007ad84600a62001136565b620007bc90620d903862001144565b6040516001600160e01b031960e085901b1681526001600160a01b0390921660048301526024820152604401600060405180830381600087803b1580156200080357600080fd5b505af115801562000818573d6000803e3d6000fd5b5050505050801562000864576000805461ff0019169055604051600181527f7f26b83ff96e1f2b6a682f133852f6798a09c465da95921460cefb38474024989060200160405180910390a15b505050565b66038d7ea4c68000341015620008d65760405162461bcd60e51b815260206004820152602b60248201527f4379626572466f7274756e65476f643a20496e73756666696369656e7420696e60448201526a63656e7365206d6f6e657960a81b60648201526084016200051d565b6000620008e2620005bd565b6000818152606c60209081526040808320338452909152902054909150600311620009665760405162461bcd60e51b815260206004820152602d60248201527f4379626572466f7274756e65476f643a204d696e7420757020746f207468726560448201526c652074696d657320612064617960981b60648201526084016200051d565b6000818152606b602052604090205460ff16620009de576000818152606b6020908152604091829020805460ff191660011790556103786067558151338152908101839052428183015290517fbea77d7032571316759bda46ee1544473a0b842e1ad3b20aec6c09b5c588b889916060908290030190a15b6000620009eb8362000d3b565b90506000811162000a6f5760405162461bcd60e51b815260206004820152604160248201527f4379626572466f7274756e65476f643a2054686520696e63656e7365206d6f6e60448201527f657920686173206265656e206469737472696275746564206f757420746f64616064820152607960f81b608482015260a4016200051d565b6000828152606c60209081526040808320338452909152812080546001929062000a9b90849062000fba565b90915550506069546040805163313ce56760e01b815290516000926001600160a01b03169163313ce5679160048083019260209291908290030181865afa15801562000aeb573d6000803e3d6000fd5b505050506040513d601f19601f8201168201806040525081019062000b11919062001014565b60ff16905060008262000b2683600a62001136565b62000b32919062001144565b6069546040516340c10f1960e01b8152336004820152602481018390529192506001600160a01b0316906340c10f1990604401600060405180830381600087803b15801562000b8057600080fd5b505af115801562000b95573d6000803e3d6000fd5b505060408051338152602081018590527f9dff41da70aedfc40cf8d5e57e66ae3053b5477933045f08db4b19e24918bec9935001905060405180910390a15050505050565b62000be462000c59565b6001600160a01b03811662000c4b5760405162461bcd60e51b815260206004820152602660248201527f4f776e61626c653a206e6577206f776e657220697320746865207a65726f206160448201526564647265737360d01b60648201526084016200051d565b62000c568162000cb5565b50565b6033546001600160a01b03163314620004cd5760405162461bcd60e51b815260206004820181905260248201527f4f776e61626c653a2063616c6c6572206973206e6f7420746865206f776e657260448201526064016200051d565b603380546001600160a01b038381166001600160a01b0319831681179093556040519116919082907f8be0079c531659141344cd1fd0a4f28419497f9722a3daafe3b4186f6b6457e090600090a35050565b600054610100900460ff1662000d315760405162461bcd60e51b81526004016200051d906200115e565b620004cd62000e35565b600060675460000362000d5057506000919050565b600062000d5c620005bd565b6000818152606a6020526040902054909150600381101562000d8b5762000d838162000e6a565b925062000dc8565b600062000d9d600060665487620004cf565b905060685481101562000dc0578060685462000dba919062000f9e565b62000dc4565b6068545b9350505b606754831062000dea5750506067805460009182905560689190915592915050565b82606881905550826067600082825462000e05919062000f9e565b9091555050821562000e2e5762000e1e81600162000fba565b6000838152606a60205260409020555b5050919050565b600054610100900460ff1662000e5f5760405162461bcd60e51b81526004016200051d906200115e565b620004cd3362000cb5565b60008160000362000e7d57506058919050565b8160010362000e8e57506042919050565b8160020362000e9f57506024919050565b919050565b610cc680620011aa83390190565b60006020828403121562000ec557600080fd5b5035919050565b80356001600160a01b038116811462000e9f57600080fd5b6000806040838503121562000ef857600080fd5b8235915062000f0a6020840162000ecc565b90509250929050565b60006020828403121562000f2657600080fd5b62000f318262000ecc565b9392505050565b60008060006060848603121562000f4e57600080fd5b505081359360208301359350604090920135919050565b6000806040838503121562000f7957600080fd5b50508035926020909101359150565b634e487b7160e01b600052601160045260246000fd5b8181038181111562000fb45762000fb462000f88565b92915050565b8082018082111562000fb45762000fb462000f88565b634e487b7160e01b600052601260045260246000fd5b60008262000ff85762000ff862000fd0565b500690565b6000826200100f576200100f62000fd0565b500490565b6000602082840312156200102757600080fd5b815160ff8116811462000f3157600080fd5b600181815b808511156200107a5781600019048211156200105e576200105e62000f88565b808516156200106c57918102915b93841c93908002906200103e565b509250929050565b600082620010935750600162000fb4565b81620010a25750600062000fb4565b8160018114620010bb5760028114620010c657620010e6565b600191505062000fb4565b60ff841115620010da57620010da62000f88565b50506001821b62000fb4565b5060208310610133831016604e8410600b84101617156200110b575081810a62000fb4565b62001117838362001039565b80600019048211156200112e576200112e62000f88565b029392505050565b600062000f31838362001082565b808202811582820484141762000fb45762000fb462000f88565b6020808252602b908201527f496e697469616c697a61626c653a20636f6e7472616374206973206e6f74206960408201526a6e697469616c697a696e6760a81b60608201526080019056fe60a06040523480156200001157600080fd5b5060405162000cc638038062000cc68339810160408190526200003491620000a6565b6040518060400160405280600981526020016826b2b934ba21b7b4b760b91b815250604051806040016040528060028152602001614d4360f01b81525081600390816200008291906200017d565b5060046200009182826200017d565b5050506001600160a01b031660805262000249565b600060208284031215620000b957600080fd5b81516001600160a01b0381168114620000d157600080fd5b9392505050565b634e487b7160e01b600052604160045260246000fd5b600181811c908216806200010357607f821691505b6020821081036200012457634e487b7160e01b600052602260045260246000fd5b50919050565b601f8211156200017857600081815260208120601f850160051c81016020861015620001535750805b601f850160051c820191505b8181101562000174578281556001016200015f565b5050505b505050565b81516001600160401b03811115620001995762000199620000d8565b620001b181620001aa8454620000ee565b846200012a565b602080601f831160018114620001e95760008415620001d05750858301515b600019600386901b1c1916600185901b17855562000174565b600085815260208120601f198616915b828110156200021a57888601518255948401946001909101908401620001f9565b5085821015620002395787850151600019600388901b60f8161c191681555b5050505050600190811b01905550565b608051610a5b6200026b6000396000818160f701526103170152610a5b6000f3fe608060405234801561001057600080fd5b50600436106100cf5760003560e01c8063395093511161008c57806395d89b411161006657806395d89b41146101d9578063a457c2d7146101e1578063a9059cbb146101f4578063dd62ed3e1461020757600080fd5b8063395093511461018857806340c10f191461019b57806370a08231146101b057600080fd5b806306fdde03146100d457806307546172146100f2578063095ea7b31461013157806318160ddd1461015457806323b872dd14610166578063313ce56714610179575b600080fd5b6100dc61021a565b6040516100e991906108a5565b60405180910390f35b6101197f000000000000000000000000000000000000000000000000000000000000000081565b6040516001600160a01b0390911681526020016100e9565b61014461013f36600461090f565b6102ac565b60405190151581526020016100e9565b6002545b6040519081526020016100e9565b610144610174366004610939565b6102c6565b604051601281526020016100e9565b61014461019636600461090f565b6102ea565b6101ae6101a936600461090f565b61030c565b005b6101586101be366004610975565b6001600160a01b031660009081526020819052604090205490565b6100dc610397565b6101446101ef36600461090f565b6103a6565b61014461020236600461090f565b610421565b610158610215366004610997565b61042f565b606060038054610229906109ca565b80601f0160208091040260200160405190810160405280929190818152602001828054610255906109ca565b80156102a25780601f10610277576101008083540402835291602001916102a2565b820191906000526020600020905b81548152906001019060200180831161028557829003601f168201915b5050505050905090565b6000336102ba81858561045a565b60019150505b92915050565b6000336102d485828561057e565b6102df8585856105f8565b506001949350505050565b6000336102ba8185856102fd838361042f565b6103079190610a04565b61045a565b336001600160a01b037f000000000000000000000000000000000000000000000000000000000000000016146103895760405162461bcd60e51b815260206004820152601d60248201527f4d65726974436f696e3a20596f7520617265206e6f74206d696e74657200000060448201526064015b60405180910390fd5b61039382826107c6565b5050565b606060048054610229906109ca565b600033816103b4828661042f565b9050838110156104145760405162461bcd60e51b815260206004820152602560248201527f45524332303a2064656372656173656420616c6c6f77616e63652062656c6f77604482015264207a65726f60d81b6064820152608401610380565b6102df828686840361045a565b6000336102ba8185856105f8565b6001600160a01b03918216600090815260016020908152604080832093909416825291909152205490565b6001600160a01b0383166104bc5760405162461bcd60e51b8152602060048201526024808201527f45524332303a20617070726f76652066726f6d20746865207a65726f206164646044820152637265737360e01b6064820152608401610380565b6001600160a01b03821661051d5760405162461bcd60e51b815260206004820152602260248201527f45524332303a20617070726f766520746f20746865207a65726f206164647265604482015261737360f01b6064820152608401610380565b6001600160a01b0383811660008181526001602090815260408083209487168084529482529182902085905590518481527f8c5be1e5ebec7d5bd14f71427d1e84f3dd0314c0f7b2291e5b200ac8c7c3b925910160405180910390a3505050565b600061058a848461042f565b905060001981146105f257818110156105e55760405162461bcd60e51b815260206004820152601d60248201527f45524332303a20696e73756666696369656e7420616c6c6f77616e63650000006044820152606401610380565b6105f2848484840361045a565b50505050565b6001600160a01b03831661065c5760405162461bcd60e51b815260206004820152602560248201527f45524332303a207472616e736665722066726f6d20746865207a65726f206164604482015264647265737360d81b6064820152608401610380565b6001600160a01b0382166106be5760405162461bcd60e51b815260206004820152602360248201527f45524332303a207472616e7366657220746f20746865207a65726f206164647260448201526265737360e81b6064820152608401610380565b6001600160a01b038316600090815260208190526040902054818110156107365760405162461bcd60e51b815260206004820152602660248201527f45524332303a207472616e7366657220616d6f756e7420657863656564732062604482015265616c616e636560d01b6064820152608401610380565b6001600160a01b0380851660009081526020819052604080822085850390559185168152908120805484929061076d908490610a04565b92505081905550826001600160a01b0316846001600160a01b03167fddf252ad1be2c89b69c2b068fc378daa952ba7f163c4a11628f55a4df523b3ef846040516107b991815260200190565b60405180910390a36105f2565b6001600160a01b03821661081c5760405162461bcd60e51b815260206004820152601f60248201527f45524332303a206d696e7420746f20746865207a65726f2061646472657373006044820152606401610380565b806002600082825461082e9190610a04565b90915550506001600160a01b0382166000908152602081905260408120805483929061085b908490610a04565b90915550506040518181526001600160a01b038316906000907fddf252ad1be2c89b69c2b068fc378daa952ba7f163c4a11628f55a4df523b3ef9060200160405180910390a35050565b600060208083528351808285015260005b818110156108d2578581018301518582016040015282016108b6565b506000604082860101526040601f19601f8301168501019250505092915050565b80356001600160a01b038116811461090a57600080fd5b919050565b6000806040838503121561092257600080fd5b61092b836108f3565b946020939093013593505050565b60008060006060848603121561094e57600080fd5b610957846108f3565b9250610965602085016108f3565b9150604084013590509250925092565b60006020828403121561098757600080fd5b610990826108f3565b9392505050565b600080604083850312156109aa57600080fd5b6109b3836108f3565b91506109c1602084016108f3565b90509250929050565b600181811c908216806109de57607f821691505b6020821081036109fe57634e487b7160e01b600052602260045260246000fd5b50919050565b808201808211156102c057634e487b7160e01b600052601160045260246000fdfea2646970667358221220921514c06960e86d0055124d07f2216430593752dbe984a8bb1dd6d95a7fd32864736f6c63430008140033a264697066735822122027b55404b45e9446a006b48fb9c5b2f5e9233004e34d9f93da6acce8924552d664736f6c63430008140033",
  "devdoc": {
    "events": {
      "Initialized(uint8)": {
        "details": "Triggered when the contract has been initialized or reinitialized."
      }
    },
    "kind": "dev",
    "methods": {
      "owner()": {
        "details": "Returns the address of the current owner."
      },
      "renounceOwnership()": {
        "details": "Leaves the contract without owner. It will not be possible to call `onlyOwner` functions anymore. Can only be called by the current owner. NOTE: Renouncing ownership will leave the contract without an owner, thereby removing any functionality that is only available to the owner."
      },
      "transferOwnership(address)": {
        "details": "Transfers ownership of the contract to a new account (`newOwner`). Can only be called by the current owner."
      }
    },
    "version": 1
  },
  "userdoc": {
    "kind": "user",
    "methods": {},
    "version": 1
  },
  "storageLayout": {
    "storage": [
      {
        "astId": 138,
        "contract": "contracts/CyberFortuneGod.sol:CyberFortuneGod",
        "label": "_initialized",
        "offset": 0,
        "slot": "0",
        "type": "t_uint8"
      },
      {
        "astId": 141,
        "contract": "contracts/CyberFortuneGod.sol:CyberFortuneGod",
        "label": "_initializing",
        "offset": 1,
        "slot": "0",
        "type": "t_bool"
      },
      {
        "astId": 566,
        "contract": "contracts/CyberFortuneGod.sol:CyberFortuneGod",
        "label": "__gap",
        "offset": 0,
        "slot": "1",
        "type": "t_array(t_uint256)50_storage"
      },
      {
        "astId": 10,
        "contract": "contracts/CyberFortuneGod.sol:CyberFortuneGod",
        "label": "_owner",
        "offset": 0,
        "slot": "51",
        "type": "t_address"
      },
      {
        "astId": 130,
        "contract": "contracts/CyberFortuneGod.sol:CyberFortuneGod",
        "label": "__gap",
        "offset": 0,
        "slot": "52",
        "type": "t_array(t_uint256)49_storage"
      },
      {
        "astId": 2231,
        "contract": "contracts/CyberFortuneGod.sol:CyberFortuneGod",
        "label": "startTime",
        "offset": 0,
        "slot": "101",
        "type": "t_uint256"
      },
      {
        "astId": 2233,
        "contract": "contracts/CyberFortuneGod.sol:CyberFortuneGod",
        "label": "variationFactor",
        "offset": 0,
        "slot": "102",
        "type": "t_uint256"
      },
      {
        "astId": 2235,
        "contract": "contracts/CyberFortuneGod.sol:CyberFortuneGod",
        "label": "remainingSupply",
        "offset": 0,
        "slot": "103",
        "type": "t_uint256"
      },
      {
        "astId": 2237,
        "contract": "contracts/CyberFortuneGod.sol:CyberFortuneGod",
        "label": "lastDecrement",
        "offset": 0,
        "slot": "104",
        "type": "t_uint256"
      },
      {
        "astId": 2240,
        "contract": "contracts/CyberFortuneGod.sol:CyberFortuneGod",
        "label": "meritCoin",
        "offset": 0,
        "slot": "105",
        "type": "t_contract(MeritCoin)2705"
      },
      {
        "astId": 2244,
        "contract": "contracts/CyberFortuneGod.sol:CyberFortuneGod",
        "label": "mintNum",
        "offset": 0,
        "slot": "106",
        "type": "t_mapping(t_uint256,t_uint256)"
      },
      {
        "astId": 2248,
        "contract": "contracts/CyberFortuneGod.sol:CyberFortuneGod",
        "label": "updateSupplyByDay",
        "offset": 0,
        "slot": "107",
        "type": "t_mapping(t_uint256,t_bool)"
      },
      {
        "astId": 2254,
        "contract": "contracts/CyberFortuneGod.sol:CyberFortuneGod",
        "label": "userMintNumByDay",
        "offset": 0,
        "slot": "108",
        "type": "t_mapping(t_uint256,t_mapping(t_address,t_uint256))"
      }
    ],
    "types": {
      "t_address": {
        "encoding": "inplace",
        "label": "address",
        "numberOfBytes": "20"
      },
      "t_array(t_uint256)49_storage": {
        "base": "t_uint256",
        "encoding": "inplace",
        "label": "uint256[49]",
        "numberOfBytes": "1568"
      },
      "t_array(t_uint256)50_storage": {
        "base": "t_uint256",
        "encoding": "inplace",
        "label": "uint256[50]",
        "numberOfBytes": "1600"
      },
      "t_bool": {
        "encoding": "inplace",
        "label": "bool",
        "numberOfBytes": "1"
      },
      "t_contract(MeritCoin)2705": {
        "encoding": "inplace",
        "label": "contract MeritCoin",
        "numberOfBytes": "20"
      },
      "t_mapping(t_address,t_uint256)": {
        "encoding": "mapping",
        "key": "t_address",
        "label": "mapping(address => uint256)",
        "numberOfBytes": "32",
        "value": "t_uint256"
      },
      "t_mapping(t_uint256,t_bool)": {
        "encoding": "mapping",
        "key": "t_uint256",
        "label": "mapping(uint256 => bool)",
        "numberOfBytes": "32",
        "value": "t_bool"
      },
      "t_mapping(t_uint256,t_mapping(t_address,t_uint256))": {
        "encoding": "mapping",
        "key": "t_uint256",
        "label": "mapping(uint256 => mapping(address => uint256))",
        "numberOfBytes": "32",
        "value": "t_mapping(t_address,t_uint256)"
      },
      "t_mapping(t_uint256,t_uint256)": {
        "encoding": "mapping",
        "key": "t_uint256",
        "label": "mapping(uint256 => uint256)",
        "numberOfBytes": "32",
        "value": "t_uint256"
      },
      "t_uint256": {
        "encoding": "inplace",
        "label": "uint256",
        "numberOfBytes": "32"
      },
      "t_uint8": {
        "encoding": "inplace",
        "label": "uint8",
        "numberOfBytes": "1"
      }
    }
  }
}